{
  "deployments": [
    {
      "transactions": [
        {
          "hash": null,
          "transactionType": "CALL",
          "contractName": null,
          "contractAddress": "0x0000000df7e6c9dc387cafc5ecbfa6c3a6179add",
          "function": "setPlugins(address[],bool[])",
          "arguments": [
            "[0x0000000d81083B16EA76dfab46B0315B0eDBF3d0, 0x0000000C984AFf541D6cE86Bb697e68ec57873C8]",
            "[true, true]"
          ],
          "transaction": {
            "from": "0x0166ea90e565476f13c6a0d25ed2c35599e58785",
            "to": "0x0000000df7e6c9dc387cafc5ecbfa6c3a6179add",
            "gas": "0x17c57",
            "value": "0x0",
            "input": "0xe034b090000000000000000000000000000000000000000000000000000000000000004000000000000000000000000000000000000000000000000000000000000000a000000000000000000000000000000000000000000000000000000000000000020000000000000000000000000000000d81083b16ea76dfab46b0315b0edbf3d00000000000000000000000000000000c984aff541d6ce86bb697e68ec57873c8000000000000000000000000000000000000000000000000000000000000000200000000000000000000000000000000000000000000000000000000000000010000000000000000000000000000000000000000000000000000000000000001",
            "nonce": "0x5",
            "chainId": "0x1"
          },
          "additionalContracts": [],
          "isFixedGasLimit": false
        }
      ],
      "receipts": [],
      "libraries": [],
      "pending": [],
      "returns": {},
      "timestamp": 1738783365,
      "chain": 1,
      "commit": "51472d3"
    },
    {
      "transactions": [
        {
          "hash": null,
          "transactionType": "CALL",
          "contractName": null,
          "contractAddress": "0x0000000df7e6c9dc387cafc5ecbfa6c3a6179add",
          "function": "setPlugins(address[],bool[])",
          "arguments": [
            "[0x0000000d81083B16EA76dfab46B0315B0eDBF3d0, 0x0000000C984AFf541D6cE86Bb697e68ec57873C8]",
            "[true, true]"
          ],
          "transaction": {
            "from": "0x0166ea90e565476f13c6a0d25ed2c35599e58785",
            "to": "0x0000000df7e6c9dc387cafc5ecbfa6c3a6179add",
            "gas": "0x17c57",
            "value": "0x0",
            "input": "0xe034b090000000000000000000000000000000000000000000000000000000000000004000000000000000000000000000000000000000000000000000000000000000a000000000000000000000000000000000000000000000000000000000000000020000000000000000000000000000000d81083b16ea76dfab46b0315b0edbf3d00000000000000000000000000000000c984aff541d6ce86bb697e68ec57873c8000000000000000000000000000000000000000000000000000000000000000200000000000000000000000000000000000000000000000000000000000000010000000000000000000000000000000000000000000000000000000000000001",
            "nonce": "0xd",
            "chainId": "0xaa36a7"
          },
          "additionalContracts": [],
          "isFixedGasLimit": false
        }
      ],
      "receipts": [],
      "libraries": [],
      "pending": [],
      "returns": {},
      "timestamp": 1738783366,
      "chain": 11155111,
      "commit": "51472d3"
    },
    {
      "transactions": [
        {
          "hash": null,
          "transactionType": "CALL",
          "contractName": null,
          "contractAddress": "0x0000000df7e6c9dc387cafc5ecbfa6c3a6179add",
          "function": "setPlugins(address[],bool[])",
          "arguments": [
            "[0x0000000d81083B16EA76dfab46B0315B0eDBF3d0, 0x0000000C984AFf541D6cE86Bb697e68ec57873C8]",
            "[true, true]"
          ],
          "transaction": {
            "from": "0x0166ea90e565476f13c6a0d25ed2c35599e58785",
            "to": "0x0000000df7e6c9dc387cafc5ecbfa6c3a6179add",
            "gas": "0x17c57",
            "value": "0x0",
            "input": "0xe034b090000000000000000000000000000000000000000000000000000000000000004000000000000000000000000000000000000000000000000000000000000000a000000000000000000000000000000000000000000000000000000000000000020000000000000000000000000000000d81083b16ea76dfab46b0315b0edbf3d00000000000000000000000000000000c984aff541d6ce86bb697e68ec57873c8000000000000000000000000000000000000000000000000000000000000000200000000000000000000000000000000000000000000000000000000000000010000000000000000000000000000000000000000000000000000000000000001",
            "nonce": "0x3",
            "chainId": "0x89"
          },
          "additionalContracts": [],
          "isFixedGasLimit": false
        }
      ],
      "receipts": [],
      "libraries": [],
      "pending": [],
      "returns": {},
      "timestamp": 1738783367,
      "chain": 137,
      "commit": "51472d3"
    },
    {
      "transactions": [
        {
          "hash": null,
          "transactionType": "CALL",
          "contractName": null,
          "contractAddress": "0x0000000df7e6c9dc387cafc5ecbfa6c3a6179add",
          "function": "setPlugins(address[],bool[])",
          "arguments": [
            "[0x0000000d81083B16EA76dfab46B0315B0eDBF3d0, 0x0000000C984AFf541D6cE86Bb697e68ec57873C8]",
            "[true, true]"
          ],
          "transaction": {
            "from": "0x0166ea90e565476f13c6a0d25ed2c35599e58785",
            "to": "0x0000000df7e6c9dc387cafc5ecbfa6c3a6179add",
            "gas": "0x17c57",
            "value": "0x0",
            "input": "0xe034b090000000000000000000000000000000000000000000000000000000000000004000000000000000000000000000000000000000000000000000000000000000a000000000000000000000000000000000000000000000000000000000000000020000000000000000000000000000000d81083b16ea76dfab46b0315b0edbf3d00000000000000000000000000000000c984aff541d6ce86bb697e68ec57873c8000000000000000000000000000000000000000000000000000000000000000200000000000000000000000000000000000000000000000000000000000000010000000000000000000000000000000000000000000000000000000000000001",
            "nonce": "0x12",
            "chainId": "0x13882"
          },
          "additionalContracts": [],
          "isFixedGasLimit": false
        }
      ],
      "receipts": [],
      "libraries": [],
      "pending": [],
      "returns": {},
      "timestamp": 1738783368,
      "chain": 80002,
      "commit": "51472d3"
    },
    {
      "transactions": [
        {
          "hash": null,
          "transactionType": "CALL",
          "contractName": null,
          "contractAddress": "0x0000000df7e6c9dc387cafc5ecbfa6c3a6179add",
          "function": "setPlugins(address[],bool[])",
          "arguments": [
            "[0x0000000d81083B16EA76dfab46B0315B0eDBF3d0, 0x0000000C984AFf541D6cE86Bb697e68ec57873C8]",
            "[true, true]"
          ],
          "transaction": {
            "from": "0x0166ea90e565476f13c6a0d25ed2c35599e58785",
            "to": "0x0000000df7e6c9dc387cafc5ecbfa6c3a6179add",
            "gas": "0x422ff",
            "value": "0x0",
            "input": "0xe034b090000000000000000000000000000000000000000000000000000000000000004000000000000000000000000000000000000000000000000000000000000000a000000000000000000000000000000000000000000000000000000000000000020000000000000000000000000000000d81083b16ea76dfab46b0315b0edbf3d00000000000000000000000000000000c984aff541d6ce86bb697e68ec57873c8000000000000000000000000000000000000000000000000000000000000000200000000000000000000000000000000000000000000000000000000000000010000000000000000000000000000000000000000000000000000000000000001",
            "nonce": "0x5",
            "chainId": "0xa4b1"
          },
          "additionalContracts": [],
          "isFixedGasLimit": false
        }
      ],
      "receipts": [],
      "libraries": [],
      "pending": [],
      "returns": {},
      "timestamp": 1738783369,
      "chain": 42161,
      "commit": "51472d3"
    },
    {
      "transactions": [
        {
          "hash": null,
          "transactionType": "CALL",
          "contractName": null,
          "contractAddress": "0x0000000df7e6c9dc387cafc5ecbfa6c3a6179add",
          "function": "setPlugins(address[],bool[])",
          "arguments": [
            "[0x0000000d81083B16EA76dfab46B0315B0eDBF3d0, 0x0000000C984AFf541D6cE86Bb697e68ec57873C8]",
            "[true, true]"
          ],
          "transaction": {
            "from": "0x0166ea90e565476f13c6a0d25ed2c35599e58785",
            "to": "0x0000000df7e6c9dc387cafc5ecbfa6c3a6179add",
            "gas": "0x128af",
            "value": "0x0",
            "input": "0xe034b090000000000000000000000000000000000000000000000000000000000000004000000000000000000000000000000000000000000000000000000000000000a000000000000000000000000000000000000000000000000000000000000000020000000000000000000000000000000d81083b16ea76dfab46b0315b0edbf3d00000000000000000000000000000000c984aff541d6ce86bb697e68ec57873c8000000000000000000000000000000000000000000000000000000000000000200000000000000000000000000000000000000000000000000000000000000010000000000000000000000000000000000000000000000000000000000000001",
            "nonce": "0xc",
            "chainId": "0x66eee"
          },
          "additionalContracts": [],
          "isFixedGasLimit": false
        }
      ],
      "receipts": [],
      "libraries": [],
      "pending": [],
      "returns": {},
      "timestamp": 1738783370,
      "chain": 421614,
      "commit": "51472d3"
    }
  ],
  "timestamp": 1738783371
}