{
  "transactions": [
    {
      "hash": "0x2c0d3ae8420d62d94346432db9d211c2c414a5a340d0ed66823c864f9e0517bd",
      "transactionType": "CALL",
      "contractName": null,
      "contractAddress": "0xc83d88c018d143d08afe910221d445189fc6817a",
      "function": "setPlugins(address[],bool[])",
      "arguments": [
        "[0x3c95978Af08B6B2Fd82659B393be86AfB4bd3D6F, 0x5a2262d58eB72B84701D6efBf6bB6586C793A65b, 0x03431Fb00fB2e26b5bC502DFeF8dA30E1C8643b8]",
        "[true, true, true]"
      ],
      "transaction": {
        "from": "0x0166ea90e565476f13c6a0d25ed2c35599e58785",
        "to": "0xc83d88c018d143d08afe910221d445189fc6817a",
        "gas": "0x389fe",
        "value": "0x0",
        "input": "0xe034b090000000000000000000000000000000000000000000000000000000000000004000000000000000000000000000000000000000000000000000000000000000c000000000000000000000000000000000000000000000000000000000000000030000000000000000000000003c95978af08b6b2fd82659b393be86afb4bd3d6f0000000000000000000000005a2262d58eb72b84701d6efbf6bb6586c793a65b00000000000000000000000003431fb00fb2e26b5bc502dfef8da30e1c8643b80000000000000000000000000000000000000000000000000000000000000003000000000000000000000000000000000000000000000000000000000000000100000000000000000000000000000000000000000000000000000000000000010000000000000000000000000000000000000000000000000000000000000001",
        "nonce": "0x1",
        "chainId": "0xa4b1"
      },
      "additionalContracts": [],
      "isFixedGasLimit": false
    }
  ],
  "receipts": [
    {
      "status": "0x1",
      "cumulativeGasUsed": "0x2671a",
      "logs": [],
      "logsBloom": "0x00000000000000000000000000000000000000000000000000000000000000000000000000000000000000000000000000000000000000000000000000000000000000000000000000000000000000000000000000000000000000000000000000000000000000000000000000000000000000000000000000000000000000000000000000000000000000000000000000000000000000000000000000000000000000000000000000000000000000000000000000000000000000000000000000000000000000000000000000000000000000000000000000000000000000000000000000000000000000000000000000000000000000000000000000000000",
      "type": "0x2",
      "transactionHash": "0x2c0d3ae8420d62d94346432db9d211c2c414a5a340d0ed66823c864f9e0517bd",
      "transactionIndex": "0x1",
      "blockHash": "0x78803c26aba42c02e1c101125435d83a836453f36de15cd1c47b13420430be82",
      "blockNumber": "0xff3ad6f",
      "gasUsed": "0x2671a",
      "effectiveGasPrice": "0x989680",
      "from": "0x0166ea90e565476f13c6a0d25ed2c35599e58785",
      "to": "0xc83d88c018d143d08afe910221d445189fc6817a",
      "contractAddress": null,
      "gasUsedForL1": "0xf9b1",
      "l1BlockNumber": "0x1411fb9"
    }
  ],
  "libraries": [],
  "pending": [],
  "returns": {},
  "timestamp": 1729889992,
  "chain": 42161,
  "commit": "14fff0d"
}