{
  "transactions": [
    {
      "hash": "0x4f4f80f7dbe68cc9785f23b34df20303173595f35aff698909e7d7181750ea7b",
      "transactionType": "CALL",
      "contractName": null,
      "contractAddress": "0x3e6b66a72b76850c372fbdf29f53268ad636b320",
      "function": "setPlugins(address[],bool[])",
      "arguments": [
        "[0x558498E7CD325b17be8c8A79884A1cAcfD72a4AA]",
        "[true]"
      ],
      "transaction": {
        "from": "0x0166ea90e565476f13c6a0d25ed2c35599e58785",
        "to": "0x3e6b66a72b76850c372fbdf29f53268ad636b320",
        "gas": "0x10fd8",
        "value": "0x0",
        "input": "0xe034b090000000000000000000000000000000000000000000000000000000000000004000000000000000000000000000000000000000000000000000000000000000800000000000000000000000000000000000000000000000000000000000000001000000000000000000000000558498e7cd325b17be8c8a79884a1cacfd72a4aa00000000000000000000000000000000000000000000000000000000000000010000000000000000000000000000000000000000000000000000000000000001",
        "nonce": "0x6",
        "chainId": "0x13882"
      },
      "additionalContracts": [],
      "isFixedGasLimit": false
    }
  ],
  "receipts": [
    {
      "status": "0x1",
      "cumulativeGasUsed": "0xb9e1",
      "logs": [
        {
          "address": "0x0000000000000000000000000000000000001010",
          "topics": [
            "0x4dfe1bbbcf077ddc3e01291eea2d5c70c2b422b415d95645b9adcfd678cb1d63",
            "0x0000000000000000000000000000000000000000000000000000000000001010",
            "0x0000000000000000000000000166ea90e565476f13c6a0d25ed2c35599e58785",
            "0x000000000000000000000000915a2284d28bd93de7d6f31173b981204bb666e6"
          ],
          "data": "0x00000000000000000000000000000000000000000000000000053da0a1aafc1f000000000000000000000000000000000000000000000000001ae337a021f0ea0000000000000000000000000000000000000000000003d0668bb13e259af6570000000000000000000000000000000000000000000000000015a596fe76f4cb0000000000000000000000000000000000000000000003d06690eedec745f276",
          "blockHash": "0xd255af016a44b906cb08a0ace8d2d2d47ca100297d7c2b4a49d2333e87cf6d26",
          "blockNumber": "0xbd736b",
          "transactionHash": "0x4f4f80f7dbe68cc9785f23b34df20303173595f35aff698909e7d7181750ea7b",
          "transactionIndex": "0x0",
          "logIndex": "0x0",
          "removed": false
        }
      ],
      "logsBloom": "0x00000000000000000010000000000000000000000000000000000000000000000000000000008000000000000000000000008000004000000000000000000000000000000000000000000000000000800000000000000000000100000000000000000000000000000000000000000000000000000000000080000000000000000000000000000000000000000000000000000000000000000000000000000000200000000000000000000000000000000000000000000000000000000000004000000000000000000001000000000000000002000000000000100000000000000000000000000000000000000000000000000000400000000000000000140000",
      "type": "0x2",
      "transactionHash": "0x4f4f80f7dbe68cc9785f23b34df20303173595f35aff698909e7d7181750ea7b",
      "transactionIndex": "0x0",
      "blockHash": "0xd255af016a44b906cb08a0ace8d2d2d47ca100297d7c2b4a49d2333e87cf6d26",
      "blockNumber": "0xbd736b",
      "gasUsed": "0xb9e1",
      "effectiveGasPrice": "0x737be760e",
      "from": "0x0166ea90e565476f13c6a0d25ed2c35599e58785",
      "to": "0x3e6b66a72b76850c372fbdf29f53268ad636b320",
      "contractAddress": null
    }
  ],
  "libraries": [],
  "pending": [],
  "returns": {},
  "timestamp": 1727295498,
  "chain": 80002,
  "commit": "1d2d26c"
}