{
  "transactions": [
    {
      "hash": "0x65def1d45b219e4ebb67ed31c798d333924e997fcd91b4a33bc037a48359cb4f",
      "transactionType": "CALL",
      "contractName": null,
      "contractAddress": "0xc83d88c018d143d08afe910221d445189fc6817a",
      "function": "addStake(uint32)",
      "arguments": [
        "86400"
      ],
      "transaction": {
        "from": "0x0166ea90e565476f13c6a0d25ed2c35599e58785",
        "to": "0xc83d88c018d143d08afe910221d445189fc6817a",
        "gas": "0x14566",
        "value": "0x8ac7230489e80000",
        "input": "0x0396cb600000000000000000000000000000000000000000000000000000000000015180",
        "nonce": "0xa",
        "chainId": "0x13882"
      },
      "additionalContracts": [],
      "isFixedGasLimit": false
    }
  ],
  "receipts": [
    {
      "status": "0x1",
      "cumulativeGasUsed": "0xeb96",
      "logs": [
        {
          "address": "0x0000000000000000000000000000000000001010",
          "topics": [
            "0xe6497e3ee548a3372136af2fcb0696db31fc6cf20260707645068bd3fe97f3c4",
            "0x0000000000000000000000000000000000000000000000000000000000001010",
            "0x0000000000000000000000000166ea90e565476f13c6a0d25ed2c35599e58785",
            "0x000000000000000000000000c83d88c018d143d08afe910221d445189fc6817a"
          ],
          "data": "0x0000000000000000000000000000000000000000000000008ac7230489e80000000000000000000000000000000000000000000000000000930cb010598aa5fc000000000000000000000000000000000000000000000000000000000000000000000000000000000000000000000000000000000000000008458d0bcfa2a5fc0000000000000000000000000000000000000000000000008ac7230489e80000",
          "blockHash": "0x2a57a02cd86a2920c97ab26ec3abb8a6e84e99045b18911dac2e509b0875e061",
          "blockNumber": "0xc13328",
          "transactionHash": "0x65def1d45b219e4ebb67ed31c798d333924e997fcd91b4a33bc037a48359cb4f",
          "transactionIndex": "0x0",
          "logIndex": "0x0",
          "removed": false
        },
        {
          "address": "0x0000000000000000000000000000000000001010",
          "topics": [
            "0xe6497e3ee548a3372136af2fcb0696db31fc6cf20260707645068bd3fe97f3c4",
            "0x0000000000000000000000000000000000000000000000000000000000001010",
            "0x000000000000000000000000c83d88c018d143d08afe910221d445189fc6817a",
            "0x0000000000000000000000000000000071727de22e5e9d8baf0edac6f37da032"
          ],
          "data": "0x0000000000000000000000000000000000000000000000008ac7230489e800000000000000000000000000000000000000000000000000008ac7230489e80000000000000000000000000000000000000000000000000032ed242cc80f7908c1000000000000000000000000000000000000000000000000000000000000000000000000000000000000000000000000000000000000003377eb4fcc996108c1",
          "blockHash": "0x2a57a02cd86a2920c97ab26ec3abb8a6e84e99045b18911dac2e509b0875e061",
          "blockNumber": "0xc13328",
          "transactionHash": "0x65def1d45b219e4ebb67ed31c798d333924e997fcd91b4a33bc037a48359cb4f",
          "transactionIndex": "0x0",
          "logIndex": "0x1",
          "removed": false
        },
        {
          "address": "0x0000000071727de22e5e9d8baf0edac6f37da032",
          "topics": [
            "0xa5ae833d0bb1dcd632d98a8b70973e8516812898e19bf27b70071ebc8dc52c01",
            "0x000000000000000000000000c83d88c018d143d08afe910221d445189fc6817a"
          ],
          "data": "0x0000000000000000000000000000000000000000000000008ac7230489e800000000000000000000000000000000000000000000000000000000000000015180",
          "blockHash": "0x2a57a02cd86a2920c97ab26ec3abb8a6e84e99045b18911dac2e509b0875e061",
          "blockNumber": "0xc13328",
          "transactionHash": "0x65def1d45b219e4ebb67ed31c798d333924e997fcd91b4a33bc037a48359cb4f",
          "transactionIndex": "0x0",
          "logIndex": "0x2",
          "removed": false
        },
        {
          "address": "0x0000000000000000000000000000000000001010",
          "topics": [
            "0x4dfe1bbbcf077ddc3e01291eea2d5c70c2b422b415d95645b9adcfd678cb1d63",
            "0x0000000000000000000000000000000000000000000000000000000000001010",
            "0x0000000000000000000000000166ea90e565476f13c6a0d25ed2c35599e58785",
            "0x0000000000000000000000004631753190f2f5a15a7ba172bbac102b7d95fa22"
          ],
          "data": "0x00000000000000000000000000000000000000000000000000089210a50e600000000000000000000000000000000000000000000000000093188692ae6116f60000000000000000000000000000000000000000000001fa8dc56283706617ad000000000000000000000000000000000000000000000000930ff4820952b6f60000000000000000000000000000000000000000000001fa8dcdf494157477ad",
          "blockHash": "0x2a57a02cd86a2920c97ab26ec3abb8a6e84e99045b18911dac2e509b0875e061",
          "blockNumber": "0xc13328",
          "transactionHash": "0x65def1d45b219e4ebb67ed31c798d333924e997fcd91b4a33bc037a48359cb4f",
          "transactionIndex": "0x0",
          "logIndex": "0x3",
          "removed": false
        }
      ],
      "logsBloom": "0x00000000000000000000000000000000000000002000000000000000000000000000000000008000000000100000000000008300004000000000000040000000010000000000000000000000000000800040000000000000000100000000000000000000000800100000000000000000000000000000000080000000000000000000000000000000000000000000000000000000000000000000000000000000200000000000000000000000000000000000000000000000000000000000004000000000000000400001000000000000000040000080800000108000000000000100000000000000000000000000000000800200000000000100000000140000",
      "type": "0x2",
      "transactionHash": "0x65def1d45b219e4ebb67ed31c798d333924e997fcd91b4a33bc037a48359cb4f",
      "transactionIndex": "0x0",
      "blockHash": "0x2a57a02cd86a2920c97ab26ec3abb8a6e84e99045b18911dac2e509b0875e061",
      "blockNumber": "0xc13328",
      "gasUsed": "0xeb96",
      "effectiveGasPrice": "0x9502f900f",
      "from": "0x0166ea90e565476f13c6a0d25ed2c35599e58785",
      "to": "0xc83d88c018d143d08afe910221d445189fc6817a",
      "contractAddress": null
    }
  ],
  "libraries": [],
  "pending": [],
  "returns": {},
  "timestamp": 1727818777,
  "chain": 80002,
  "commit": "2549e72"
}