{
  "transactions": [
    {
      "hash": "0x6368b819abdde85d2ace4468a38326988b4379ed8245699d18c42495251fe471",
      "transactionType": "CALL",
      "contractName": null,
      "contractAddress": "0x3e6b66a72b76850c372fbdf29f53268ad636b320",
      "function": "addStake(uint32)",
      "arguments": [
        "86400"
      ],
      "transaction": {
        "from": "0x0166ea90e565476f13c6a0d25ed2c35599e58785",
        "to": "0x3e6b66a72b76850c372fbdf29f53268ad636b320",
        "gas": "0x14566",
        "value": "0x8ac7230489e80000",
        "input": "0x0396cb600000000000000000000000000000000000000000000000000000000000015180",
        "nonce": "0x7",
        "chainId": "0x13882"
      },
      "additionalContracts": [],
      "isFixedGasLimit": false
    }
  ],
  "receipts": [
    {
      "status": "0x1",
      "cumulativeGasUsed": "0xeb96",
      "logs": [
        {
          "address": "0x0000000000000000000000000000000000001010",
          "topics": [
            "0xe6497e3ee548a3372136af2fcb0696db31fc6cf20260707645068bd3fe97f3c4",
            "0x0000000000000000000000000000000000000000000000000000000000001010",
            "0x0000000000000000000000000166ea90e565476f13c6a0d25ed2c35599e58785",
            "0x0000000000000000000000003e6b66a72b76850c372fbdf29f53268ad636b320"
          ],
          "data": "0x0000000000000000000000000000000000000000000000008ac7230489e800000000000000000000000000000000000000000000000000008ad30edadb734dac0000000000000000000000000000000000000000000000000000000000000000000000000000000000000000000000000000000000000000000bebd6518b4dac0000000000000000000000000000000000000000000000008ac7230489e80000",
          "blockHash": "0x4ea9e1daaa3596d06f2bdaefb66bb6de060087ee4cb95064ebc0f7e8b5bf4a09",
          "blockNumber": "0xbd747e",
          "transactionHash": "0x6368b819abdde85d2ace4468a38326988b4379ed8245699d18c42495251fe471",
          "transactionIndex": "0x0",
          "logIndex": "0x0",
          "removed": false
        },
        {
          "address": "0x0000000000000000000000000000000000001010",
          "topics": [
            "0xe6497e3ee548a3372136af2fcb0696db31fc6cf20260707645068bd3fe97f3c4",
            "0x0000000000000000000000000000000000000000000000000000000000001010",
            "0x0000000000000000000000003e6b66a72b76850c372fbdf29f53268ad636b320",
            "0x0000000000000000000000000000000071727de22e5e9d8baf0edac6f37da032"
          ],
          "data": "0x0000000000000000000000000000000000000000000000008ac7230489e800000000000000000000000000000000000000000000000000008ac7230489e800000000000000000000000000000000000000000000000000324fd87db3648f664a0000000000000000000000000000000000000000000000000000000000000000000000000000000000000000000000000000000000000032da9fa0b7ee77664a",
          "blockHash": "0x4ea9e1daaa3596d06f2bdaefb66bb6de060087ee4cb95064ebc0f7e8b5bf4a09",
          "blockNumber": "0xbd747e",
          "transactionHash": "0x6368b819abdde85d2ace4468a38326988b4379ed8245699d18c42495251fe471",
          "transactionIndex": "0x0",
          "logIndex": "0x1",
          "removed": false
        },
        {
          "address": "0x0000000071727de22e5e9d8baf0edac6f37da032",
          "topics": [
            "0xa5ae833d0bb1dcd632d98a8b70973e8516812898e19bf27b70071ebc8dc52c01",
            "0x0000000000000000000000003e6b66a72b76850c372fbdf29f53268ad636b320"
          ],
          "data": "0x0000000000000000000000000000000000000000000000008ac7230489e800000000000000000000000000000000000000000000000000000000000000015180",
          "blockHash": "0x4ea9e1daaa3596d06f2bdaefb66bb6de060087ee4cb95064ebc0f7e8b5bf4a09",
          "blockNumber": "0xbd747e",
          "transactionHash": "0x6368b819abdde85d2ace4468a38326988b4379ed8245699d18c42495251fe471",
          "transactionIndex": "0x0",
          "logIndex": "0x2",
          "removed": false
        },
        {
          "address": "0x0000000000000000000000000000000000001010",
          "topics": [
            "0x4dfe1bbbcf077ddc3e01291eea2d5c70c2b422b415d95645b9adcfd678cb1d63",
            "0x0000000000000000000000000000000000000000000000000000000000001010",
            "0x0000000000000000000000000166ea90e565476f13c6a0d25ed2c35599e58785",
            "0x0000000000000000000000004ad84f7014b7b44f723f284a85b1662337971439"
          ],
          "data": "0x00000000000000000000000000000000000000000000000000070a8fc12dc4a60000000000000000000000000000000000000000000000008adcc89b8854109c0000000000000000000000000000000000000000000002ce5c4733d7c4c16ccd0000000000000000000000000000000000000000000000008ad5be0bc7264bf60000000000000000000000000000000000000000000002ce5c4e3e6785ef3173",
          "blockHash": "0x4ea9e1daaa3596d06f2bdaefb66bb6de060087ee4cb95064ebc0f7e8b5bf4a09",
          "blockNumber": "0xbd747e",
          "transactionHash": "0x6368b819abdde85d2ace4468a38326988b4379ed8245699d18c42495251fe471",
          "transactionIndex": "0x0",
          "logIndex": "0x3",
          "removed": false
        }
      ],
      "logsBloom": "0x00000000000000000000000200000000000000000000000000000000000000000000000000008000000000100000000000008000004000000000000000400000010000000000000000000000000000800040000000000000000100001000000000000000000800000000000000000000000000000000000080000000000000000000000000000000000000000000000004000020000000000000000000000000200000000000000000000000000000000000000000000000000000000000004000000000000000400001000000000000000040000000800000108000000000000100000000000000000000000000008000800200000000000100000000140000",
      "type": "0x2",
      "transactionHash": "0x6368b819abdde85d2ace4468a38326988b4379ed8245699d18c42495251fe471",
      "transactionIndex": "0x0",
      "blockHash": "0x4ea9e1daaa3596d06f2bdaefb66bb6de060087ee4cb95064ebc0f7e8b5bf4a09",
      "blockNumber": "0xbd747e",
      "gasUsed": "0xeb96",
      "effectiveGasPrice": "0x7a6c1f4a8",
      "from": "0x0166ea90e565476f13c6a0d25ed2c35599e58785",
      "to": "0x3e6b66a72b76850c372fbdf29f53268ad636b320",
      "contractAddress": null
    }
  ],
  "libraries": [],
  "pending": [],
  "returns": {},
  "timestamp": 1727296082,
  "chain": 80002,
  "commit": "1d2d26c"
}