{
  "transactions": [
    {
      "hash": "0x9f6973e5b39cfaf812730bcabfd038dfc06e9bcab4262986f853a3af9834d78b",
      "transactionType": "CALL",
      "contractName": null,
      "contractAddress": "0xc83d88c018d143d08afe910221d445189fc6817a",
      "function": "transferOwnership(address)",
      "arguments": [
        "0x5E82E32E4696bB7306Cc7278f001212C7e798D44"
      ],
      "transaction": {
        "from": "0x0166ea90e565476f13c6a0d25ed2c35599e58785",
        "to": "0xc83d88c018d143d08afe910221d445189fc6817a",
        "gas": "0x1020f",
        "value": "0x0",
        "input": "0xf2fde38b0000000000000000000000005e82e32e4696bb7306cc7278f001212c7e798d44",
        "nonce": "0x2",
        "chainId": "0x89"
      },
      "additionalContracts": [],
      "isFixedGasLimit": false
    }
  ],
  "receipts": [
    {
      "status": "0x1",
      "cumulativeGasUsed": "0x3f1323",
      "logs": [
        {
          "address": "0xc83d88c018d143d08afe910221d445189fc6817a",
          "topics": [
            "0x38d16b8cac22d99fc7c124b9cd0de2d3fa1faef420bfe791d8c362d765e22700",
            "0x0000000000000000000000000166ea90e565476f13c6a0d25ed2c35599e58785",
            "0x0000000000000000000000005e82e32e4696bb7306cc7278f001212c7e798d44"
          ],
          "data": "0x",
          "blockHash": "0x024102969ac9e95c60590d72b892b025a4419d4619e703a03d889701f037a081",
          "blockNumber": "0x3c8b887",
          "transactionHash": "0x9f6973e5b39cfaf812730bcabfd038dfc06e9bcab4262986f853a3af9834d78b",
          "transactionIndex": "0x19",
          "logIndex": "0x7b",
          "removed": false
        },
        {
          "address": "0x0000000000000000000000000000000000001010",
          "topics": [
            "0x4dfe1bbbcf077ddc3e01291eea2d5c70c2b422b415d95645b9adcfd678cb1d63",
            "0x0000000000000000000000000000000000000000000000000000000000001010",
            "0x0000000000000000000000000166ea90e565476f13c6a0d25ed2c35599e58785",
            "0x000000000000000000000000a8b52f02108aa5f4b675bdcc973760022d7c6020"
          ],
          "data": "0x00000000000000000000000000000000000000000000000000051a4fc990c58000000000000000000000000000000000000000000000000002b62149bdb9f27c000000000000000000000000000000000000000000000078ddc11e84429d346500000000000000000000000000000000000000000000000002b106f9f4292cfc000000000000000000000000000000000000000000000078ddc638d40c2df9e5",
          "blockHash": "0x024102969ac9e95c60590d72b892b025a4419d4619e703a03d889701f037a081",
          "blockNumber": "0x3c8b887",
          "transactionHash": "0x9f6973e5b39cfaf812730bcabfd038dfc06e9bcab4262986f853a3af9834d78b",
          "transactionIndex": "0x19",
          "logIndex": "0x7c",
          "removed": false
        }
      ],
      "logsBloom": "0x00000000000000000000000000000000000000000000000000000000000000000000000000008000000004000002000000008000004000010000000000000000000000000000000000000000000000800000000000000000000180000000000000000000000000000000000000000000000800000000000080000000000000000001000000000000000000000000000000000000000000040000000000000000200000000000024000000000000000000000010000000000000000000000004000002000000000000001000000000000000000000000000000100000000000000000000000000000008000000000000000000000000000000000000000140000",
      "type": "0x2",
      "transactionHash": "0x9f6973e5b39cfaf812730bcabfd038dfc06e9bcab4262986f853a3af9834d78b",
      "transactionIndex": "0x19",
      "blockHash": "0x024102969ac9e95c60590d72b892b025a4419d4619e703a03d889701f037a081",
      "blockNumber": "0x3c8b887",
      "gasUsed": "0xbad5",
      "effectiveGasPrice": "0x6fe25f0d3",
      "from": "0x0166ea90e565476f13c6a0d25ed2c35599e58785",
      "to": "0xc83d88c018d143d08afe910221d445189fc6817a",
      "contractAddress": null
    }
  ],
  "libraries": [],
  "pending": [],
  "returns": {},
  "timestamp": 1729889714,
  "chain": 137,
  "commit": "14fff0d"
}