{
  "transactions": [
    {
      "hash": "0xff7abdeda077fcccb43688e8e4483e83a17bf51705cd9caa99400a903be265fc",
      "transactionType": "CALL",
      "contractName": null,
      "contractAddress": "0xc83d88c018d143d08afe910221d445189fc6817a",
      "function": "setPlugins(address[],bool[])",
      "arguments": [
        "[0x3c95978Af08B6B2Fd82659B393be86AfB4bd3D6F, 0x5a2262d58eB72B84701D6efBf6bB6586C793A65b, 0x03431Fb00fB2e26b5bC502DFeF8dA30E1C8643b8]",
        "[true, true, true]"
      ],
      "transaction": {
        "from": "0x0166ea90e565476f13c6a0d25ed2c35599e58785",
        "to": "0xc83d88c018d143d08afe910221d445189fc6817a",
        "gas": "0x21669",
        "value": "0x0",
        "input": "0xe034b090000000000000000000000000000000000000000000000000000000000000004000000000000000000000000000000000000000000000000000000000000000c000000000000000000000000000000000000000000000000000000000000000030000000000000000000000003c95978af08b6b2fd82659b393be86afb4bd3d6f0000000000000000000000005a2262d58eb72b84701d6efbf6bb6586c793a65b00000000000000000000000003431fb00fb2e26b5bc502dfef8da30e1c8643b80000000000000000000000000000000000000000000000000000000000000003000000000000000000000000000000000000000000000000000000000000000100000000000000000000000000000000000000000000000000000000000000010000000000000000000000000000000000000000000000000000000000000001",
        "nonce": "0x1",
        "chainId": "0x89"
      },
      "additionalContracts": [],
      "isFixedGasLimit": false
    }
  ],
  "receipts": [
    {
      "status": "0x1",
      "cumulativeGasUsed": "0x1394c4d",
      "logs": [
        {
          "address": "0x0000000000000000000000000000000000001010",
          "topics": [
            "0x4dfe1bbbcf077ddc3e01291eea2d5c70c2b422b415d95645b9adcfd678cb1d63",
            "0x0000000000000000000000000000000000000000000000000000000000001010",
            "0x0000000000000000000000000166ea90e565476f13c6a0d25ed2c35599e58785",
            "0x000000000000000000000000eedba2484aaf940f37cd3cd21a5d7c4a7dafbfc0"
          ],
          "data": "0x0000000000000000000000000000000000000000000000000009f85c46dd8c0000000000000000000000000000000000000000000000000002c01b3da2567e4a000000000000000000000000000000000000000000017783e1e23da9b42ba49100000000000000000000000000000000000000000000000002b622e15b78f24a000000000000000000000000000000000000000000017783e1ec3605fb093091",
          "blockHash": "0xbe001a9beac42ffa45ad603876ecb05f70713a02801bb736ef7e3aba61a59752",
          "blockNumber": "0x3c8b7c0",
          "transactionHash": "0xff7abdeda077fcccb43688e8e4483e83a17bf51705cd9caa99400a903be265fc",
          "transactionIndex": "0x6c",
          "logIndex": "0x20d",
          "removed": false
        }
      ],
      "logsBloom": "0x00000000000000000000000000000000000000000000000000000000000000000000000000008000000000000000000000008000004000000000000000000000000000000000000000000000000000800000000000000000000100000000000000000000000000000000000000000000000000000100000080000000000000000000004000000000000000000000000000000000000000000000000000000000200000000000000000000000000000000000000000000000000020000000004000000000000000000001000000000000000000000000000000100000000000000000000000000000000000000000000000000000000000000000000000140000",
      "type": "0x2",
      "transactionHash": "0xff7abdeda077fcccb43688e8e4483e83a17bf51705cd9caa99400a903be265fc",
      "transactionIndex": "0x6c",
      "blockHash": "0xbe001a9beac42ffa45ad603876ecb05f70713a02801bb736ef7e3aba61a59752",
      "blockNumber": "0x3c8b7c0",
      "gasUsed": "0x16d69",
      "effectiveGasPrice": "0x6fd413d9e",
      "from": "0x0166ea90e565476f13c6a0d25ed2c35599e58785",
      "to": "0xc83d88c018d143d08afe910221d445189fc6817a",
      "contractAddress": null
    }
  ],
  "libraries": [],
  "pending": [],
  "returns": {},
  "timestamp": 1729889297,
  "chain": 137,
  "commit": "14fff0d"
}