{
  "transactions": [
    {
      "hash": "0x1af7d624625963b92e1b5ddf12be66f817441d7a193cf20825815ce2dd7c4fd1",
      "transactionType": "CALL",
      "contractName": null,
      "contractAddress": "0xc83d88c018d143d08afe910221d445189fc6817a",
      "function": "addStake(uint32)",
      "arguments": [
        "86400"
      ],
      "transaction": {
        "from": "0x0166ea90e565476f13c6a0d25ed2c35599e58785",
        "to": "0xc83d88c018d143d08afe910221d445189fc6817a",
        "gas": "0x14566",
        "value": "0x56bc75e2d63100000",
        "input": "0x0396cb600000000000000000000000000000000000000000000000000000000000015180",
        "nonce": "0x0",
        "chainId": "0x89"
      },
      "additionalContracts": [],
      "isFixedGasLimit": false
    }
  ],
  "receipts": [
    {
      "status": "0x1",
      "cumulativeGasUsed": "0x84bd83",
      "logs": [
        {
          "address": "0x0000000000000000000000000000000000001010",
          "topics": [
            "0xe6497e3ee548a3372136af2fcb0696db31fc6cf20260707645068bd3fe97f3c4",
            "0x0000000000000000000000000000000000000000000000000000000000001010",
            "0x0000000000000000000000000166ea90e565476f13c6a0d25ed2c35599e58785",
            "0x000000000000000000000000c83d88c018d143d08afe910221d445189fc6817a"
          ],
          "data": "0x0000000000000000000000000000000000000000000000056bc75e2d631000000000000000000000000000000000000000000000000000056e850543d88f1d7a000000000000000000000000000000000000000000000000000000000000000000000000000000000000000000000000000000000000000002bda716757f1d7a0000000000000000000000000000000000000000000000056bc75e2d63100000",
          "blockHash": "0x7b5275dff65362573463083a395ed0856d0f1619d4863cee67ec769da0786641",
          "blockNumber": "0x3c8b79e",
          "transactionHash": "0x1af7d624625963b92e1b5ddf12be66f817441d7a193cf20825815ce2dd7c4fd1",
          "transactionIndex": "0x24",
          "logIndex": "0x108",
          "removed": false
        },
        {
          "address": "0x0000000000000000000000000000000000001010",
          "topics": [
            "0xe6497e3ee548a3372136af2fcb0696db31fc6cf20260707645068bd3fe97f3c4",
            "0x0000000000000000000000000000000000000000000000000000000000001010",
            "0x000000000000000000000000c83d88c018d143d08afe910221d445189fc6817a",
            "0x0000000000000000000000000000000071727de22e5e9d8baf0edac6f37da032"
          ],
          "data": "0x0000000000000000000000000000000000000000000000056bc75e2d631000000000000000000000000000000000000000000000000000056bc75e2d63100000000000000000000000000000000000000000000000000131fda7568abca4ec620000000000000000000000000000000000000000000000000000000000000000000000000000000000000000000000000000000000000137696eb4b81fb4ec62",
          "blockHash": "0x7b5275dff65362573463083a395ed0856d0f1619d4863cee67ec769da0786641",
          "blockNumber": "0x3c8b79e",
          "transactionHash": "0x1af7d624625963b92e1b5ddf12be66f817441d7a193cf20825815ce2dd7c4fd1",
          "transactionIndex": "0x24",
          "logIndex": "0x109",
          "removed": false
        },
        {
          "address": "0x0000000071727de22e5e9d8baf0edac6f37da032",
          "topics": [
            "0xa5ae833d0bb1dcd632d98a8b70973e8516812898e19bf27b70071ebc8dc52c01",
            "0x000000000000000000000000c83d88c018d143d08afe910221d445189fc6817a"
          ],
          "data": "0x0000000000000000000000000000000000000000000000056bc75e2d631000000000000000000000000000000000000000000000000000000000000000015180",
          "blockHash": "0x7b5275dff65362573463083a395ed0856d0f1619d4863cee67ec769da0786641",
          "blockNumber": "0x3c8b79e",
          "transactionHash": "0x1af7d624625963b92e1b5ddf12be66f817441d7a193cf20825815ce2dd7c4fd1",
          "transactionIndex": "0x24",
          "logIndex": "0x10a",
          "removed": false
        },
        {
          "address": "0x0000000000000000000000000000000000001010",
          "topics": [
            "0x4dfe1bbbcf077ddc3e01291eea2d5c70c2b422b415d95645b9adcfd678cb1d63",
            "0x0000000000000000000000000000000000000000000000000000000000001010",
            "0x0000000000000000000000000166ea90e565476f13c6a0d25ed2c35599e58785",
            "0x000000000000000000000000fcccd43296d9c1601a904eca9b339d94a5e5e098"
          ],
          "data": "0x00000000000000000000000000000000000000000000000000066e5817c185c00000000000000000000000000000000000000000000000056e8de91e1e2400000000000000000000000000000000000000000000000042c1a6c2cf549b68a33e0000000000000000000000000000000000000000000000056e877ac606627a400000000000000000000000000000000000000000000042c1a6c93dacb32a28fe",
          "blockHash": "0x7b5275dff65362573463083a395ed0856d0f1619d4863cee67ec769da0786641",
          "blockNumber": "0x3c8b79e",
          "transactionHash": "0x1af7d624625963b92e1b5ddf12be66f817441d7a193cf20825815ce2dd7c4fd1",
          "transactionIndex": "0x24",
          "logIndex": "0x10b",
          "removed": false
        }
      ],
      "logsBloom": "0x00000000000000000000000000000000000200000000000000000000000000000000000000008000000000100000000000008300004000000000000000000000010000000000000000000000000000800040000000000000000100000000000000000000000880000000000000000000000000000000000080000000000000000000000000000000000000000000000000000000000000000000000000000000200000000000000000000000000000000000000000000000000000000000004000000000000000400001000000000000000040000080800000108000000000000100000000000000000000000000000000800200000000000100000000140000",
      "type": "0x2",
      "transactionHash": "0x1af7d624625963b92e1b5ddf12be66f817441d7a193cf20825815ce2dd7c4fd1",
      "transactionIndex": "0x24",
      "blockHash": "0x7b5275dff65362573463083a395ed0856d0f1619d4863cee67ec769da0786641",
      "blockNumber": "0x3c8b79e",
      "gasUsed": "0xeb96",
      "effectiveGasPrice": "0x6fe79ff31",
      "from": "0x0166ea90e565476f13c6a0d25ed2c35599e58785",
      "to": "0xc83d88c018d143d08afe910221d445189fc6817a",
      "contractAddress": null
    }
  ],
  "libraries": [],
  "pending": [],
  "returns": {},
  "timestamp": 1729889217,
  "chain": 137,
  "commit": "14fff0d"
}