{
  "transactions": [
    {
      "hash": "0x939b16105fe11bf36300c81ae5e275541eb57234f758fb796822a5f2e3a8d2d8",
      "transactionType": "CALL",
      "contractName": null,
      "contractAddress": "0x3e6b66a72b76850c372fbdf29f53268ad636b320",
      "function": "setPlugins(address[],bool[])",
      "arguments": [
        "[0x7af5E9DBe3e50F023a5b99f44002697cF8e1de2e, 0x3c95978Af08B6B2Fd82659B393be86AfB4bd3D6F, 0x558498E7CD325b17be8c8A79884A1cAcfD72a4AA, 0x03431Fb00fB2e26b5bC502DFeF8dA30E1C8643b8]",
        "[true, true, true, true]"
      ],
      "transaction": {
        "from": "0x0166ea90e565476f13c6a0d25ed2c35599e58785",
        "to": "0x3e6b66a72b76850c372fbdf29f53268ad636b320",
        "gas": "0x3d0eb",
        "value": "0x0",
        "input": "0xe034b090000000000000000000000000000000000000000000000000000000000000004000000000000000000000000000000000000000000000000000000000000000e000000000000000000000000000000000000000000000000000000000000000040000000000000000000000007af5e9dbe3e50f023a5b99f44002697cf8e1de2e0000000000000000000000003c95978af08b6b2fd82659b393be86afb4bd3d6f000000000000000000000000558498e7cd325b17be8c8a79884a1cacfd72a4aa00000000000000000000000003431fb00fb2e26b5bc502dfef8da30e1c8643b800000000000000000000000000000000000000000000000000000000000000040000000000000000000000000000000000000000000000000000000000000001000000000000000000000000000000000000000000000000000000000000000100000000000000000000000000000000000000000000000000000000000000010000000000000000000000000000000000000000000000000000000000000001",
        "nonce": "0x1",
        "chainId": "0x66eee"
      },
      "additionalContracts": [],
      "isFixedGasLimit": false
    }
  ],
  "receipts": [
    {
      "status": "0x1",
      "cumulativeGasUsed": "0x292e3",
      "logs": [],
      "logsBloom": "0x00000000000000000000000000000000000000000000000000000000000000000000000000000000000000000000000000000000000000000000000000000000000000000000000000000000000000000000000000000000000000000000000000000000000000000000000000000000000000000000000000000000000000000000000000000000000000000000000000000000000000000000000000000000000000000000000000000000000000000000000000000000000000000000000000000000000000000000000000000000000000000000000000000000000000000000000000000000000000000000000000000000000000000000000000000000",
      "type": "0x2",
      "transactionHash": "0x939b16105fe11bf36300c81ae5e275541eb57234f758fb796822a5f2e3a8d2d8",
      "transactionIndex": "0x1",
      "blockHash": "0x5be4a796b8da819995920ff414b772f40914c174b03355584820c306c92243ef",
      "blockNumber": "0x506a82b",
      "gasUsed": "0x292e3",
      "effectiveGasPrice": "0x10101750",
      "from": "0x0166ea90e565476f13c6a0d25ed2c35599e58785",
      "to": "0x3e6b66a72b76850c372fbdf29f53268ad636b320",
      "contractAddress": null,
      "gasUsedForL1": "0xcbb6",
      "l1BlockNumber": "0x673880"
    }
  ],
  "libraries": [],
  "pending": [],
  "returns": {},
  "timestamp": 1727376574,
  "chain": 421614,
  "commit": "e9c0223"
}