{
  "deployments": [
    {
      "transactions": [
        {
          "hash": "0x083caaed7be0e75894efa941bfeb20b1a3852f06737ef251382e9ac73cb8b525",
          "transactionType": "CALL",
          "contractName": null,
          "contractAddress": "0x0000000df7e6c9dc387cafc5ecbfa6c3a6179add",
          "function": "addStake(uint32)",
          "arguments": [
            "86400"
          ],
          "transaction": {
            "from": "0x0166ea90e565476f13c6a0d25ed2c35599e58785",
            "to": "0x0000000df7e6c9dc387cafc5ecbfa6c3a6179add",
            "gas": "0x14566",
            "value": "0x16345785d8a0000",
            "input": "0x0396cb600000000000000000000000000000000000000000000000000000000000015180",
            "nonce": "0x6",
            "chainId": "0x1"
          },
          "additionalContracts": [],
          "isFixedGasLimit": false
        }
      ],
      "receipts": [
        {
          "status": "0x1",
          "cumulativeGasUsed": "0x19a1838",
          "logs": [
            {
              "address": "0x0000000071727de22e5e9d8baf0edac6f37da032",
              "topics": [
                "0xa5ae833d0bb1dcd632d98a8b70973e8516812898e19bf27b70071ebc8dc52c01",
                "0x0000000000000000000000000000000df7e6c9dc387cafc5ecbfa6c3a6179add"
              ],
              "data": "0x000000000000000000000000000000000000000000000000016345785d8a00000000000000000000000000000000000000000000000000000000000000015180",
              "blockHash": "0x8f16644cd279dc50b6e9af878cfd6e48f09a46e23a55a582d8ad495c3d778a1b",
              "blockNumber": "0x14c6301",
              "transactionHash": "0x083caaed7be0e75894efa941bfeb20b1a3852f06737ef251382e9ac73cb8b525",
              "transactionIndex": "0xe8",
              "logIndex": "0x2e5",
              "removed": false
            }
          ],
          "logsBloom": "0x00000000000000000000000000000000000080000000000000000000000000000000000000000000000000000000000000000000000000000000000000000000000000000000000000000000000000000040000000000000000000000000000000000000000800000000000000000000000000000000000000000000000000000000000000000000000000000000000000000000000000000040000000000000000000000000000000000000000000000000000000000000000000000000000000000000000000400000000000000000000040000000000000000000000000000100000000000000000000000000000020000200000000000000000000000000",
          "type": "0x2",
          "transactionHash": "0x083caaed7be0e75894efa941bfeb20b1a3852f06737ef251382e9ac73cb8b525",
          "transactionIndex": "0xe8",
          "blockHash": "0x8f16644cd279dc50b6e9af878cfd6e48f09a46e23a55a582d8ad495c3d778a1b",
          "blockNumber": "0x14c6301",
          "gasUsed": "0xeb96",
          "effectiveGasPrice": "0x466a412c",
          "from": "0x0166ea90e565476f13c6a0d25ed2c35599e58785",
          "to": "0x0000000df7e6c9dc387cafc5ecbfa6c3a6179add",
          "contractAddress": null
        }
      ],
      "libraries": [],
      "pending": [],
      "returns": {},
      "timestamp": 1738794643,
      "chain": 1,
      "commit": "51472d3"
    },
    {
      "transactions": [
        {
          "hash": "0x2d723c4e673e18eeecb076631243e9c07e4ab5f1d0bae7df7d97dc6a7e9b9c97",
          "transactionType": "CALL",
          "contractName": null,
          "contractAddress": "0x0000000df7e6c9dc387cafc5ecbfa6c3a6179add",
          "function": "addStake(uint32)",
          "arguments": [
            "86400"
          ],
          "transaction": {
            "from": "0x0166ea90e565476f13c6a0d25ed2c35599e58785",
            "to": "0x0000000df7e6c9dc387cafc5ecbfa6c3a6179add",
            "gas": "0x14566",
            "value": "0x16345785d8a0000",
            "input": "0x0396cb600000000000000000000000000000000000000000000000000000000000015180",
            "nonce": "0xe",
            "chainId": "0xaa36a7"
          },
          "additionalContracts": [],
          "isFixedGasLimit": false
        }
      ],
      "receipts": [
        {
          "status": "0x1",
          "cumulativeGasUsed": "0x21fde74",
          "logs": [
            {
              "address": "0x0000000071727de22e5e9d8baf0edac6f37da032",
              "topics": [
                "0xa5ae833d0bb1dcd632d98a8b70973e8516812898e19bf27b70071ebc8dc52c01",
                "0x0000000000000000000000000000000df7e6c9dc387cafc5ecbfa6c3a6179add"
              ],
              "data": "0x000000000000000000000000000000000000000000000000016345785d8a00000000000000000000000000000000000000000000000000000000000000015180",
              "blockHash": "0xec98b09fcbda24960a748131154e8937f24bf7f4220080be150d081d1a3cdab8",
              "blockNumber": "0x74b1db",
              "transactionHash": "0x2d723c4e673e18eeecb076631243e9c07e4ab5f1d0bae7df7d97dc6a7e9b9c97",
              "transactionIndex": "0x93",
              "logIndex": "0x172",
              "removed": false
            }
          ],
          "logsBloom": "0x00000000000000000000000000000000000080000000000000000000000000000000000000000000000000000000000000000000000000000000000000000000000000000000000000000000000000000040000000000000000000000000000000000000000800000000000000000000000000000000000000000000000000000000000000000000000000000000000000000000000000000040000000000000000000000000000000000000000000000000000000000000000000000000000000000000000000400000000000000000000040000000000000000000000000000100000000000000000000000000000020000200000000000000000000000000",
          "type": "0x2",
          "transactionHash": "0x2d723c4e673e18eeecb076631243e9c07e4ab5f1d0bae7df7d97dc6a7e9b9c97",
          "transactionIndex": "0x93",
          "blockHash": "0xec98b09fcbda24960a748131154e8937f24bf7f4220080be150d081d1a3cdab8",
          "blockNumber": "0x74b1db",
          "gasUsed": "0xeb96",
          "effectiveGasPrice": "0x3c1c17f7",
          "from": "0x0166ea90e565476f13c6a0d25ed2c35599e58785",
          "to": "0x0000000df7e6c9dc387cafc5ecbfa6c3a6179add",
          "contractAddress": null
        }
      ],
      "libraries": [],
      "pending": [],
      "returns": {},
      "timestamp": 1738794646,
      "chain": 11155111,
      "commit": "51472d3"
    },
    {
      "transactions": [
        {
          "hash": "0x7451d6d3453935b4ff245debc262bab4cf17b571c7942006261df21dae0a3ebd",
          "transactionType": "CALL",
          "contractName": null,
          "contractAddress": "0x0000000df7e6c9dc387cafc5ecbfa6c3a6179add",
          "function": "addStake(uint32)",
          "arguments": [
            "86400"
          ],
          "transaction": {
            "from": "0x0166ea90e565476f13c6a0d25ed2c35599e58785",
            "to": "0x0000000df7e6c9dc387cafc5ecbfa6c3a6179add",
            "gas": "0x14566",
            "value": "0x56bc75e2d63100000",
            "input": "0x0396cb600000000000000000000000000000000000000000000000000000000000015180",
            "nonce": "0x4",
            "chainId": "0x89"
          },
          "additionalContracts": [],
          "isFixedGasLimit": false
        }
      ],
      "receipts": [
        {
          "status": "0x1",
          "cumulativeGasUsed": "0x6a016d",
          "logs": [
            {
              "address": "0x0000000000000000000000000000000000001010",
              "topics": [
                "0xe6497e3ee548a3372136af2fcb0696db31fc6cf20260707645068bd3fe97f3c4",
                "0x0000000000000000000000000000000000000000000000000000000000001010",
                "0x0000000000000000000000000166ea90e565476f13c6a0d25ed2c35599e58785",
                "0x0000000000000000000000000000000df7e6c9dc387cafc5ecbfa6c3a6179add"
              ],
              "data": "0x0000000000000000000000000000000000000000000000056bc75e2d631000000000000000000000000000000000000000000000000000057c491bb204ed1d3500000000000000000000000000000000000000000000000000000000000000000000000000000000000000000000000000000000000000001081bd84a1dd1d350000000000000000000000000000000000000000000000056bc75e2d63100000",
              "blockHash": "0x8ed10fa7b0e7c37e235d388b7ab4598a0a85eb2a7d9ef14695833b11b1749134",
              "blockNumber": "0x4073fa8",
              "transactionHash": "0x7451d6d3453935b4ff245debc262bab4cf17b571c7942006261df21dae0a3ebd",
              "transactionIndex": "0x45",
              "logIndex": "0xf9",
              "removed": false
            },
            {
              "address": "0x0000000000000000000000000000000000001010",
              "topics": [
                "0xe6497e3ee548a3372136af2fcb0696db31fc6cf20260707645068bd3fe97f3c4",
                "0x0000000000000000000000000000000000000000000000000000000000001010",
                "0x0000000000000000000000000000000df7e6c9dc387cafc5ecbfa6c3a6179add",
                "0x0000000000000000000000000000000071727de22e5e9d8baf0edac6f37da032"
              ],
              "data": "0x0000000000000000000000000000000000000000000000056bc75e2d631000000000000000000000000000000000000000000000000000056bc75e2d631000000000000000000000000000000000000000000000000002a885709dee31f5bd5600000000000000000000000000000000000000000000000000000000000000000000000000000000000000000000000000000000000002adf137fc1b9505bd56",
              "blockHash": "0x8ed10fa7b0e7c37e235d388b7ab4598a0a85eb2a7d9ef14695833b11b1749134",
              "blockNumber": "0x4073fa8",
              "transactionHash": "0x7451d6d3453935b4ff245debc262bab4cf17b571c7942006261df21dae0a3ebd",
              "transactionIndex": "0x45",
              "logIndex": "0xfa",
              "removed": false
            },
            {
              "address": "0x0000000071727de22e5e9d8baf0edac6f37da032",
              "topics": [
                "0xa5ae833d0bb1dcd632d98a8b70973e8516812898e19bf27b70071ebc8dc52c01",
                "0x0000000000000000000000000000000df7e6c9dc387cafc5ecbfa6c3a6179add"
              ],
              "data": "0x0000000000000000000000000000000000000000000000056bc75e2d631000000000000000000000000000000000000000000000000000000000000000015180",
              "blockHash": "0x8ed10fa7b0e7c37e235d388b7ab4598a0a85eb2a7d9ef14695833b11b1749134",
              "blockNumber": "0x4073fa8",
              "transactionHash": "0x7451d6d3453935b4ff245debc262bab4cf17b571c7942006261df21dae0a3ebd",
              "transactionIndex": "0x45",
              "logIndex": "0xfb",
              "removed": false
            },
            {
              "address": "0x0000000000000000000000000000000000001010",
              "topics": [
                "0x4dfe1bbbcf077ddc3e01291eea2d5c70c2b422b415d95645b9adcfd678cb1d63",
                "0x0000000000000000000000000000000000000000000000000000000000001010",
                "0x0000000000000000000000000166ea90e565476f13c6a0d25ed2c35599e58785",
                "0x000000000000000000000000b95d435df3f8b2a8d8b9c2b7c8766c9ae6ed8cc9"
              ],
              "data": "0x0000000000000000000000000000000000000000000000000005d1794a7446d20000000000000000000000000000000000000000000000057c51741b8313e4f700000000000000000000000000000000000000000000001ff72113268439cb0c0000000000000000000000000000000000000000000000057c4ba2a2389f9e2500000000000000000000000000000000000000000000001ff726e49fceae11de",
              "blockHash": "0x8ed10fa7b0e7c37e235d388b7ab4598a0a85eb2a7d9ef14695833b11b1749134",
              "blockNumber": "0x4073fa8",
              "transactionHash": "0x7451d6d3453935b4ff245debc262bab4cf17b571c7942006261df21dae0a3ebd",
              "transactionIndex": "0x45",
              "logIndex": "0xfc",
              "removed": false
            }
          ],
          "logsBloom": "0x00000000000000000000000000000000000080000000000000000000000000000000000000008000000000100000000000008000004000000000000000000000810000000000000000000000000000800040000000000000000100000000000100000000000800000000000000000000000000000000000080000000000000000000000000000000000000000000000000000000000000000040000000000000200000000000000000000000000000000000000000000000000000000000004000000000000000440001000000000000000040000000800000108000000000000100000000000000000000000000000020800200000000000100000000140000",
          "type": "0x2",
          "transactionHash": "0x7451d6d3453935b4ff245debc262bab4cf17b571c7942006261df21dae0a3ebd",
          "transactionIndex": "0x45",
          "blockHash": "0x8ed10fa7b0e7c37e235d388b7ab4598a0a85eb2a7d9ef14695833b11b1749134",
          "blockNumber": "0x4073fa8",
          "gasUsed": "0xeb96",
          "effectiveGasPrice": "0x690c6591b",
          "from": "0x0166ea90e565476f13c6a0d25ed2c35599e58785",
          "to": "0x0000000df7e6c9dc387cafc5ecbfa6c3a6179add",
          "contractAddress": null
        }
      ],
      "libraries": [],
      "pending": [],
      "returns": {},
      "timestamp": 1738794648,
      "chain": 137,
      "commit": "51472d3"
    },
    {
      "transactions": [
        {
          "hash": "0x4d741213bc6581c47dea2f222d8e5affd0dba523f50ba5d548f7747b58085c3b",
          "transactionType": "CALL",
          "contractName": null,
          "contractAddress": "0x0000000df7e6c9dc387cafc5ecbfa6c3a6179add",
          "function": "addStake(uint32)",
          "arguments": [
            "86400"
          ],
          "transaction": {
            "from": "0x0166ea90e565476f13c6a0d25ed2c35599e58785",
            "to": "0x0000000df7e6c9dc387cafc5ecbfa6c3a6179add",
            "gas": "0x14566",
            "value": "0x8ac7230489e80000",
            "input": "0x0396cb600000000000000000000000000000000000000000000000000000000000015180",
            "nonce": "0x13",
            "chainId": "0x13882"
          },
          "additionalContracts": [],
          "isFixedGasLimit": false
        }
      ],
      "receipts": [
        {
          "status": "0x1",
          "cumulativeGasUsed": "0xeb96",
          "logs": [
            {
              "address": "0x0000000000000000000000000000000000001010",
              "topics": [
                "0xe6497e3ee548a3372136af2fcb0696db31fc6cf20260707645068bd3fe97f3c4",
                "0x0000000000000000000000000000000000000000000000000000000000001010",
                "0x0000000000000000000000000166ea90e565476f13c6a0d25ed2c35599e58785",
                "0x0000000000000000000000000000000df7e6c9dc387cafc5ecbfa6c3a6179add"
              ],
              "data": "0x0000000000000000000000000000000000000000000000008ac7230489e800000000000000000000000000000000000000000000000000009d555674518829b50000000000000000000000000000000000000000000000000000000000000000000000000000000000000000000000000000000000000000128e336fc7a029b50000000000000000000000000000000000000000000000008ac7230489e80000",
              "blockHash": "0xdf85569ad4fc81c701c10dbc9a1979bbe8908033bd2df94ce2434837d2516bcc",
              "blockNumber": "0x10e764a",
              "transactionHash": "0x4d741213bc6581c47dea2f222d8e5affd0dba523f50ba5d548f7747b58085c3b",
              "transactionIndex": "0x0",
              "logIndex": "0x0",
              "removed": false
            },
            {
              "address": "0x0000000000000000000000000000000000001010",
              "topics": [
                "0xe6497e3ee548a3372136af2fcb0696db31fc6cf20260707645068bd3fe97f3c4",
                "0x0000000000000000000000000000000000000000000000000000000000001010",
                "0x0000000000000000000000000000000df7e6c9dc387cafc5ecbfa6c3a6179add",
                "0x0000000000000000000000000000000071727de22e5e9d8baf0edac6f37da032"
              ],
              "data": "0x0000000000000000000000000000000000000000000000008ac7230489e800000000000000000000000000000000000000000000000000008ac7230489e80000000000000000000000000000000000000000000000000364b9139c76a15c690e000000000000000000000000000000000000000000000000000000000000000000000000000000000000000000000000000000000000036543dabf7b2b44690e",
              "blockHash": "0xdf85569ad4fc81c701c10dbc9a1979bbe8908033bd2df94ce2434837d2516bcc",
              "blockNumber": "0x10e764a",
              "transactionHash": "0x4d741213bc6581c47dea2f222d8e5affd0dba523f50ba5d548f7747b58085c3b",
              "transactionIndex": "0x0",
              "logIndex": "0x1",
              "removed": false
            },
            {
              "address": "0x0000000071727de22e5e9d8baf0edac6f37da032",
              "topics": [
                "0xa5ae833d0bb1dcd632d98a8b70973e8516812898e19bf27b70071ebc8dc52c01",
                "0x0000000000000000000000000000000df7e6c9dc387cafc5ecbfa6c3a6179add"
              ],
              "data": "0x0000000000000000000000000000000000000000000000008ac7230489e800000000000000000000000000000000000000000000000000000000000000015180",
              "blockHash": "0xdf85569ad4fc81c701c10dbc9a1979bbe8908033bd2df94ce2434837d2516bcc",
              "blockNumber": "0x10e764a",
              "transactionHash": "0x4d741213bc6581c47dea2f222d8e5affd0dba523f50ba5d548f7747b58085c3b",
              "transactionIndex": "0x0",
              "logIndex": "0x2",
              "removed": false
            },
            {
              "address": "0x0000000000000000000000000000000000001010",
              "topics": [
                "0x4dfe1bbbcf077ddc3e01291eea2d5c70c2b422b415d95645b9adcfd678cb1d63",
                "0x0000000000000000000000000000000000000000000000000000000000001010",
                "0x0000000000000000000000000166ea90e565476f13c6a0d25ed2c35599e58785",
                "0x0000000000000000000000006ab3d36c46ecfb9b9c0bd51cb1c3da5a2c81cea6"
              ],
              "data": "0x0000000000000000000000000000000000000000000000000007cae61581dbb60000000000000000000000000000000000000000000000009d6019de777f2735000000000000000000000000000000000000000000000587679ad006d3d398d00000000000000000000000000000000000000000000000009d584ef861fd4b7f00000000000000000000000000000000000000000000058767a29aece9557486",
              "blockHash": "0xdf85569ad4fc81c701c10dbc9a1979bbe8908033bd2df94ce2434837d2516bcc",
              "blockNumber": "0x10e764a",
              "transactionHash": "0x4d741213bc6581c47dea2f222d8e5affd0dba523f50ba5d548f7747b58085c3b",
              "transactionIndex": "0x0",
              "logIndex": "0x3",
              "removed": false
            }
          ],
          "logsBloom": "0x00000000080000000000000000000000000080000000000000000000000000000000000000008000000000100000000000008000004000000000000000000000010000080000000000000000000000800040000000000000000100000000000000000000000800000000000000000000000000000000000080000000000000000000000000000000000000000000000000000000000000000040000000000000200000000000000000000000000000000000000000000000000000000000004000000000000000400001000000000000000040010000800000108000000000000100000000000000000000000000000020800200000000000100000000140000",
          "type": "0x2",
          "transactionHash": "0x4d741213bc6581c47dea2f222d8e5affd0dba523f50ba5d548f7747b58085c3b",
          "transactionIndex": "0x0",
          "blockHash": "0xdf85569ad4fc81c701c10dbc9a1979bbe8908033bd2df94ce2434837d2516bcc",
          "blockNumber": "0x10e764a",
          "gasUsed": "0xeb96",
          "effectiveGasPrice": "0x877c2e640",
          "from": "0x0166ea90e565476f13c6a0d25ed2c35599e58785",
          "to": "0x0000000df7e6c9dc387cafc5ecbfa6c3a6179add",
          "contractAddress": null
        }
      ],
      "libraries": [],
      "pending": [],
      "returns": {},
      "timestamp": 1738794649,
      "chain": 80002,
      "commit": "51472d3"
    },
    {
      "transactions": [
        {
          "hash": "0x62a8cc6ece53971fbe4df5b5a1894c2ae321aedd13aca6975072374fedd4dd5c",
          "transactionType": "CALL",
          "contractName": null,
          "contractAddress": "0x0000000df7e6c9dc387cafc5ecbfa6c3a6179add",
          "function": "addStake(uint32)",
          "arguments": [
            "86400"
          ],
          "transaction": {
            "from": "0x0166ea90e565476f13c6a0d25ed2c35599e58785",
            "to": "0x0000000df7e6c9dc387cafc5ecbfa6c3a6179add",
            "gas": "0x15bc9",
            "value": "0x16345785d8a0000",
            "input": "0x0396cb600000000000000000000000000000000000000000000000000000000000015180",
            "nonce": "0x6",
            "chainId": "0xa4b1"
          },
          "additionalContracts": [],
          "isFixedGasLimit": false
        }
      ],
      "receipts": [
        {
          "status": "0x1",
          "cumulativeGasUsed": "0x18c04f",
          "logs": [
            {
              "address": "0x0000000071727de22e5e9d8baf0edac6f37da032",
              "topics": [
                "0xa5ae833d0bb1dcd632d98a8b70973e8516812898e19bf27b70071ebc8dc52c01",
                "0x0000000000000000000000000000000df7e6c9dc387cafc5ecbfa6c3a6179add"
              ],
              "data": "0x000000000000000000000000000000000000000000000000016345785d8a00000000000000000000000000000000000000000000000000000000000000015180",
              "blockHash": "0x588021da44dfa818ba5d11592e7b72d9d664b3881d7e909015304faa2ac55d67",
              "blockNumber": "0x120fea69",
              "transactionHash": "0x62a8cc6ece53971fbe4df5b5a1894c2ae321aedd13aca6975072374fedd4dd5c",
              "transactionIndex": "0xe",
              "logIndex": "0xf",
              "removed": false
            }
          ],
          "logsBloom": "0x00000000000000000000000000000000000080000000000000000000000000000000000000000000000000000000000000000000000000000000000000000000000000000000000000000000000000000040000000000000000000000000000000000000000800000000000000000000000000000000000000000000000000000000000000000000000000000000000000000000000000000040000000000000000000000000000000000000000000000000000000000000000000000000000000000000000000400000000000000000000040000000000000000000000000000100000000000000000000000000000020000200000000000000000000000000",
          "type": "0x2",
          "transactionHash": "0x62a8cc6ece53971fbe4df5b5a1894c2ae321aedd13aca6975072374fedd4dd5c",
          "transactionIndex": "0xe",
          "blockHash": "0x588021da44dfa818ba5d11592e7b72d9d664b3881d7e909015304faa2ac55d67",
          "blockNumber": "0x120fea69",
          "gasUsed": "0x10132",
          "effectiveGasPrice": "0x989680",
          "from": "0x0166ea90e565476f13c6a0d25ed2c35599e58785",
          "to": "0x0000000df7e6c9dc387cafc5ecbfa6c3a6179add",
          "contractAddress": null,
          "gasUsedForL1": "0x159c",
          "l1BlockNumber": "0x14c6303"
        }
      ],
      "libraries": [],
      "pending": [],
      "returns": {},
      "timestamp": 1738794653,
      "chain": 42161,
      "commit": "51472d3"
    },
    {
      "transactions": [
        {
          "hash": "0xde4bc16f622134cc3161b9e67a71f5a3c1e896ea18a97e19b1c9e6199641f35c",
          "transactionType": "CALL",
          "contractName": null,
          "contractAddress": "0x0000000df7e6c9dc387cafc5ecbfa6c3a6179add",
          "function": "addStake(uint32)",
          "arguments": [
            "86400"
          ],
          "transaction": {
            "from": "0x0166ea90e565476f13c6a0d25ed2c35599e58785",
            "to": "0x0000000df7e6c9dc387cafc5ecbfa6c3a6179add",
            "gas": "0xe230",
            "value": "0x16345785d8a0000",
            "input": "0x0396cb600000000000000000000000000000000000000000000000000000000000015180",
            "nonce": "0xc",
            "chainId": "0x66eee"
          },
          "additionalContracts": [],
          "isFixedGasLimit": false
        }
      ],
      "receipts": [
        {
          "status": "0x1",
          "cumulativeGasUsed": "0x3b41b",
          "logs": [
            {
              "address": "0x0000000071727de22e5e9d8baf0edac6f37da032",
              "topics": [
                "0xa5ae833d0bb1dcd632d98a8b70973e8516812898e19bf27b70071ebc8dc52c01",
                "0x0000000000000000000000000000000df7e6c9dc387cafc5ecbfa6c3a6179add"
              ],
              "data": "0x00000000000000000000000000000000000000000000000002c68af0bb1400000000000000000000000000000000000000000000000000000000000000015180",
              "blockHash": "0xff1bb7d30c48163f2c14f71ba8640e095cdc2fe0e777e0e4c48af099a681a9e4",
              "blockNumber": "0x73c04fc",
              "transactionHash": "0xde4bc16f622134cc3161b9e67a71f5a3c1e896ea18a97e19b1c9e6199641f35c",
              "transactionIndex": "0x3",
              "logIndex": "0x4",
              "removed": false
            }
          ],
          "logsBloom": "0x00000000000000000000000000000000000080000000000000000000000000000000000000000000000000000000000000000000000000000000000000000000000000000000000000000000000000000040000000000000000000000000000000000000000800000000000000000000000000000000000000000000000000000000000000000000000000000000000000000000000000000040000000000000000000000000000000000000000000000000000000000000000000000000000000000000000000400000000000000000000040000000000000000000000000000100000000000000000000000000000020000200000000000000000000000000",
          "type": "0x2",
          "transactionHash": "0xde4bc16f622134cc3161b9e67a71f5a3c1e896ea18a97e19b1c9e6199641f35c",
          "transactionIndex": "0x3",
          "blockHash": "0xff1bb7d30c48163f2c14f71ba8640e095cdc2fe0e777e0e4c48af099a681a9e4",
          "blockNumber": "0x73c04fc",
          "gasUsed": "0xaa7c",
          "effectiveGasPrice": "0x5f5e100",
          "from": "0x0166ea90e565476f13c6a0d25ed2c35599e58785",
          "to": "0x0000000df7e6c9dc387cafc5ecbfa6c3a6179add",
          "contractAddress": null,
          "gasUsedForL1": "0x1b2",
          "l1BlockNumber": "0x74b1dc"
        }
      ],
      "libraries": [],
      "pending": [],
      "returns": {},
      "timestamp": 1738794656,
      "chain": 421614,
      "commit": "51472d3"
    },
    {
      "transactions": [
        {
          "hash": "0x27260797dc60ce3508b8819495b1ac620b5cb70c6eda0d25bbf76dd23963d38f",
          "transactionType": "CALL",
          "contractName": null,
          "contractAddress": "0x0000000df7e6c9dc387cafc5ecbfa6c3a6179add",
          "function": "addStake(uint32)",
          "arguments": [
            "86400"
          ],
          "transaction": {
            "from": "0x0166ea90e565476f13c6a0d25ed2c35599e58785",
            "to": "0x0000000df7e6c9dc387cafc5ecbfa6c3a6179add",
            "gas": "0x14566",
            "value": "0x16345785d8a0000",
            "input": "0x0396cb600000000000000000000000000000000000000000000000000000000000015180",
            "nonce": "0x1",
            "chainId": "0x515"
          },
          "additionalContracts": [],
          "isFixedGasLimit": false
        }
      ],
      "receipts": [
        {
          "status": "0x1",
          "cumulativeGasUsed": "0x34395",
          "logs": [
            {
              "address": "0x0000000071727de22e5e9d8baf0edac6f37da032",
              "topics": [
                "0xa5ae833d0bb1dcd632d98a8b70973e8516812898e19bf27b70071ebc8dc52c01",
                "0x0000000000000000000000000000000df7e6c9dc387cafc5ecbfa6c3a6179add"
              ],
              "data": "0x000000000000000000000000000000000000000000000000016345785d8a00000000000000000000000000000000000000000000000000000000000000015180",
              "blockHash": "0x647fe2f9117b7b3c09f2df93cdc9bf26821a50aac296239793d50f8b6741cf41",
              "blockNumber": "0xb639a4",
              "transactionHash": "0x27260797dc60ce3508b8819495b1ac620b5cb70c6eda0d25bbf76dd23963d38f",
              "transactionIndex": "0x4",
              "logIndex": "0x3",
              "removed": false
            }
          ],
          "logsBloom": "0x00000000000000000000000000000000000080000000000000000000000000000000000000000000000000000000000000000000000000000000000000000000000000000000000000000000000000000040000000000000000000000000000000000000000800000000000000000000000000000000000000000000000000000000000000000000000000000000000000000000000000000040000000000000000000000000000000000000000000000000000000000000000000000000000000000000000000400000000000000000000040000000000000000000000000000100000000000000000000000000000020000200000000000000000000000000",
          "type": "0x2",
          "transactionHash": "0x27260797dc60ce3508b8819495b1ac620b5cb70c6eda0d25bbf76dd23963d38f",
          "transactionIndex": "0x4",
          "blockHash": "0x647fe2f9117b7b3c09f2df93cdc9bf26821a50aac296239793d50f8b6741cf41",
          "blockNumber": "0xb639a4",
          "gasUsed": "0xeb96",
          "effectiveGasPrice": "0xf6a51",
          "from": "0x0166ea90e565476f13c6a0d25ed2c35599e58785",
          "to": "0x0000000df7e6c9dc387cafc5ecbfa6c3a6179add",
          "contractAddress": null,
          "l1BaseFeeScalar": "0x7d0",
          "l1BlobBaseFee": "0x1",
          "l1BlobBaseFeeScalar": "0xdbba0",
          "l1Fee": "0xd15effa6",
          "l1GasPrice": "0x416dafc8",
          "l1GasUsed": "0x640"
        }
      ],
      "libraries": [],
      "pending": [],
      "returns": {},
      "timestamp": 1738794658,
      "chain": 1301,
      "commit": "51472d3"
    },
    {
      "transactions": [
        {
          "hash": "0xa2dbb9bac035999b7fbdc17c5382642a4d46cc9d0949cf0d90c4ebab4b002cc3",
          "transactionType": "CALL",
          "contractName": null,
          "contractAddress": "0x0000000df7e6c9dc387cafc5ecbfa6c3a6179add",
          "function": "addStake(uint32)",
          "arguments": [
            "86400"
          ],
          "transaction": {
            "from": "0x0166ea90e565476f13c6a0d25ed2c35599e58785",
            "to": "0x0000000df7e6c9dc387cafc5ecbfa6c3a6179add",
            "gas": "0x14566",
            "value": "0x16345785d8a0000",
            "input": "0x0396cb600000000000000000000000000000000000000000000000000000000000015180",
            "nonce": "0x1",
            "chainId": "0x82"
          },
          "additionalContracts": [],
          "isFixedGasLimit": false
        }
      ],
      "receipts": [
        {
          "status": "0x1",
          "cumulativeGasUsed": "0x19720",
          "logs": [
            {
              "address": "0x0000000071727de22e5e9d8baf0edac6f37da032",
              "topics": [
                "0xa5ae833d0bb1dcd632d98a8b70973e8516812898e19bf27b70071ebc8dc52c01",
                "0x0000000000000000000000000000000df7e6c9dc387cafc5ecbfa6c3a6179add"
              ],
              "data": "0x000000000000000000000000000000000000000000000000016345785d8a00000000000000000000000000000000000000000000000000000000000000015180",
              "blockHash": "0x6b2074f5e29102ae3ca42ee8edd3d51f1c351035a3ef18a2dd33f1bf8f2af7a0",
              "blockNumber": "0x7ac730",
              "transactionHash": "0xa2dbb9bac035999b7fbdc17c5382642a4d46cc9d0949cf0d90c4ebab4b002cc3",
              "transactionIndex": "0x1",
              "logIndex": "0x0",
              "removed": false
            }
          ],
          "logsBloom": "0x00000000000000000000000000000000000080000000000000000000000000000000000000000000000000000000000000000000000000000000000000000000000000000000000000000000000000000040000000000000000000000000000000000000000800000000000000000000000000000000000000000000000000000000000000000000000000000000000000000000000000000040000000000000000000000000000000000000000000000000000000000000000000000000000000000000000000400000000000000000000040000000000000000000000000000100000000000000000000000000000020000200000000000000000000000000",
          "type": "0x2",
          "transactionHash": "0xa2dbb9bac035999b7fbdc17c5382642a4d46cc9d0949cf0d90c4ebab4b002cc3",
          "transactionIndex": "0x1",
          "blockHash": "0x6b2074f5e29102ae3ca42ee8edd3d51f1c351035a3ef18a2dd33f1bf8f2af7a0",
          "blockNumber": "0x7ac730",
          "gasUsed": "0xeb96",
          "effectiveGasPrice": "0xfd",
          "from": "0x0166ea90e565476f13c6a0d25ed2c35599e58785",
          "to": "0x0000000df7e6c9dc387cafc5ecbfa6c3a6179add",
          "contractAddress": null,
          "l1BaseFeeScalar": "0x7d0",
          "l1BlobBaseFee": "0x45cf0",
          "l1BlobBaseFeeScalar": "0xdbba0",
          "l1Fee": "0xf439458c",
          "l1GasPrice": "0x4bd72fde",
          "l1GasUsed": "0x640"
        }
      ],
      "libraries": [],
      "pending": [],
      "returns": {},
      "timestamp": 1738794660,
      "chain": 130,
      "commit": "51472d3"
    }
  ],
  "timestamp": 1738794743
}