{
  "transactions": [
    {
      "hash": "0xcba417f9a5f08057fdc1536da16188bf43e3da566127b6fa3dd4b4d24cf260f7",
      "transactionType": "CALL",
      "contractName": null,
      "contractAddress": "0xc83d88c018d143d08afe910221d445189fc6817a",
      "function": "addStake(uint32)",
      "arguments": [
        "86400"
      ],
      "transaction": {
        "from": "0x0166ea90e565476f13c6a0d25ed2c35599e58785",
        "to": "0xc83d88c018d143d08afe910221d445189fc6817a",
        "gas": "0x2155e",
        "value": "0x16345785d8a0000",
        "input": "0x0396cb600000000000000000000000000000000000000000000000000000000000015180",
        "nonce": "0x0",
        "chainId": "0xa4b1"
      },
      "additionalContracts": [],
      "isFixedGasLimit": false
    }
  ],
  "receipts": [
    {
      "status": "0x1",
      "cumulativeGasUsed": "0x122c17",
      "logs": [
        {
          "address": "0x0000000071727de22e5e9d8baf0edac6f37da032",
          "topics": [
            "0xa5ae833d0bb1dcd632d98a8b70973e8516812898e19bf27b70071ebc8dc52c01",
            "0x000000000000000000000000c83d88c018d143d08afe910221d445189fc6817a"
          ],
          "data": "0x000000000000000000000000000000000000000000000000016345785d8a00000000000000000000000000000000000000000000000000000000000000015180",
          "blockHash": "0x2953a0281d3258d681320cdba0e1ff610425404e11e35226ecee8e23a391dc8c",
          "blockNumber": "0xff3ad22",
          "transactionHash": "0xcba417f9a5f08057fdc1536da16188bf43e3da566127b6fa3dd4b4d24cf260f7",
          "transactionIndex": "0x3",
          "logIndex": "0x19",
          "removed": false
        }
      ],
      "logsBloom": "0x00000000000000000000000000000000000000000000000000000000000000000000000000000000000000000000000000000300000000000000000000000000000000000000000000000000000000000040000000000000000000000000000000000000000800000000000000000000000000000000000000000000000000000000000000000000000000000000000000000000000000000000000000000000000000000000000000000000000000000000000000000000000000000000000000000000000000400000000000000000000040000080000000000000000000000100000000000000000000000000000000000200000000000000000000000000",
      "type": "0x2",
      "transactionHash": "0xcba417f9a5f08057fdc1536da16188bf43e3da566127b6fa3dd4b4d24cf260f7",
      "transactionIndex": "0x3",
      "blockHash": "0x2953a0281d3258d681320cdba0e1ff610425404e11e35226ecee8e23a391dc8c",
      "blockNumber": "0xff3ad22",
      "gasUsed": "0x16c90",
      "effectiveGasPrice": "0x989680",
      "from": "0x0166ea90e565476f13c6a0d25ed2c35599e58785",
      "to": "0xc83d88c018d143d08afe910221d445189fc6817a",
      "contractAddress": null,
      "gasUsedForL1": "0x80fa",
      "l1BlockNumber": "0x1411fb7"
    }
  ],
  "libraries": [],
  "pending": [],
  "returns": {},
  "timestamp": 1729889972,
  "chain": 42161,
  "commit": "14fff0d"
}