{
  "deployments": [
    {
      "transactions": [
        {
          "hash": "0xc5411644e171bddc3cd7a59cb29b35744bc352a0d14e84d3efb5336359bf31ac",
          "transactionType": "CALL",
          "contractName": null,
          "contractAddress": "0x0000000df7e6c9dc387cafc5ecbfa6c3a6179add",
          "function": "setPlugins(address[],bool[])",
          "arguments": [
            "[0x0000000d81083B16EA76dfab46B0315B0eDBF3d0, 0x0000000C984AFf541D6cE86Bb697e68ec57873C8]",
            "[true, true]"
          ],
          "transaction": {
            "from": "0x0166ea90e565476f13c6a0d25ed2c35599e58785",
            "to": "0x0000000df7e6c9dc387cafc5ecbfa6c3a6179add",
            "gas": "0x17c57",
            "value": "0x0",
            "input": "0xe034b090000000000000000000000000000000000000000000000000000000000000004000000000000000000000000000000000000000000000000000000000000000a000000000000000000000000000000000000000000000000000000000000000020000000000000000000000000000000d81083b16ea76dfab46b0315b0edbf3d00000000000000000000000000000000c984aff541d6ce86bb697e68ec57873c8000000000000000000000000000000000000000000000000000000000000000200000000000000000000000000000000000000000000000000000000000000010000000000000000000000000000000000000000000000000000000000000001",
            "nonce": "0x0",
            "chainId": "0x2105"
          },
          "additionalContracts": [],
          "isFixedGasLimit": false
        }
      ],
      "receipts": [
        {
          "status": "0x1",
          "cumulativeGasUsed": "0x3b52e69",
          "logs": [],
          "logsBloom": "0x00000000000000000000000000000000000000000000000000000000000000000000000000000000000000000000000000000000000000000000000000000000000000000000000000000000000000000000000000000000000000000000000000000000000000000000000000000000000000000000000000000000000000000000000000000000000000000000000000000000000000000000000000000000000000000000000000000000000000000000000000000000000000000000000000000000000000000000000000000000000000000000000000000000000000000000000000000000000000000000000000000000000000000000000000000000",
          "type": "0x2",
          "transactionHash": "0xc5411644e171bddc3cd7a59cb29b35744bc352a0d14e84d3efb5336359bf31ac",
          "transactionIndex": "0x7e",
          "blockHash": "0x4806154a4110d27401257dced778ab0b93fc914980f5bf66aeacfa43f7cece05",
          "blockNumber": "0x1a72d3e",
          "gasUsed": "0x1135d",
          "effectiveGasPrice": "0x29e4cd",
          "from": "0x0166ea90e565476f13c6a0d25ed2c35599e58785",
          "to": "0x0000000df7e6c9dc387cafc5ecbfa6c3a6179add",
          "contractAddress": null,
          "l1BaseFeeScalar": "0x8dd",
          "l1BlobBaseFee": "0x194b19aa",
          "l1BlobBaseFeeScalar": "0x101c12",
          "l1Fee": "0xde0291c55",
          "l1GasPrice": "0x1788c054",
          "l1GasUsed": "0x80e"
        }
      ],
      "libraries": [],
      "pending": [],
      "returns": {},
      "timestamp": 1742255964,
      "chain": 8453,
      "commit": "f5e82e5"
    },
    {
      "transactions": [
        {
          "hash": "0xc3635297a639920411199d3ee506f6c2867920bfeee2bb30f200b303d91f29c3",
          "transactionType": "CALL",
          "contractName": null,
          "contractAddress": "0x0000000df7e6c9dc387cafc5ecbfa6c3a6179add",
          "function": "setPlugins(address[],bool[])",
          "arguments": [
            "[0x0000000d81083B16EA76dfab46B0315B0eDBF3d0, 0x0000000C984AFf541D6cE86Bb697e68ec57873C8]",
            "[true, true]"
          ],
          "transaction": {
            "from": "0x0166ea90e565476f13c6a0d25ed2c35599e58785",
            "to": "0x0000000df7e6c9dc387cafc5ecbfa6c3a6179add",
            "gas": "0x17c57",
            "value": "0x0",
            "input": "0xe034b090000000000000000000000000000000000000000000000000000000000000004000000000000000000000000000000000000000000000000000000000000000a000000000000000000000000000000000000000000000000000000000000000020000000000000000000000000000000d81083b16ea76dfab46b0315b0edbf3d00000000000000000000000000000000c984aff541d6ce86bb697e68ec57873c8000000000000000000000000000000000000000000000000000000000000000200000000000000000000000000000000000000000000000000000000000000010000000000000000000000000000000000000000000000000000000000000001",
            "nonce": "0x0",
            "chainId": "0xa"
          },
          "additionalContracts": [],
          "isFixedGasLimit": false
        }
      ],
      "receipts": [
        {
          "status": "0x1",
          "cumulativeGasUsed": "0xcc5f1d",
          "logs": [],
          "logsBloom": "0x00000000000000000000000000000000000000000000000000000000000000000000000000000000000000000000000000000000000000000000000000000000000000000000000000000000000000000000000000000000000000000000000000000000000000000000000000000000000000000000000000000000000000000000000000000000000000000000000000000000000000000000000000000000000000000000000000000000000000000000000000000000000000000000000000000000000000000000000000000000000000000000000000000000000000000000000000000000000000000000000000000000000000000000000000000000",
          "type": "0x2",
          "transactionHash": "0xc3635297a639920411199d3ee506f6c2867920bfeee2bb30f200b303d91f29c3",
          "transactionIndex": "0x11",
          "blockHash": "0xc538be7354f00b24853e9aa3fe67c339ce8d8740644b4515f05c729d40dee5d3",
          "blockNumber": "0x7f26ed4",
          "gasUsed": "0x1135d",
          "effectiveGasPrice": "0x310f8",
          "from": "0x0166ea90e565476f13c6a0d25ed2c35599e58785",
          "to": "0x0000000df7e6c9dc387cafc5ecbfa6c3a6179add",
          "contractAddress": null,
          "l1BaseFeeScalar": "0x146b",
          "l1BlobBaseFee": "0x14c8fcf1",
          "l1BlobBaseFeeScalar": "0xf79c5",
          "l1Fee": "0xb4a8f8161",
          "l1GasPrice": "0x173a0424",
          "l1GasUsed": "0x7d8"
        }
      ],
      "libraries": [],
      "pending": [],
      "returns": {},
      "timestamp": 1742255964,
      "chain": 10,
      "commit": "f5e82e5"
    },
    {
      "transactions": [
        {
          "hash": "0xb617f5e35a3fe95a76227bc0a9c3da1db00e28c4ab64f7e8519683e65c583217",
          "transactionType": "CALL",
          "contractName": null,
          "contractAddress": "0x0000000df7e6c9dc387cafc5ecbfa6c3a6179add",
          "function": "setPlugins(address[],bool[])",
          "arguments": [
            "[0x0000000d81083B16EA76dfab46B0315B0eDBF3d0, 0x0000000C984AFf541D6cE86Bb697e68ec57873C8]",
            "[true, true]"
          ],
          "transaction": {
            "from": "0x0166ea90e565476f13c6a0d25ed2c35599e58785",
            "to": "0x0000000df7e6c9dc387cafc5ecbfa6c3a6179add",
            "gas": "0x17c57",
            "value": "0x0",
            "input": "0xe034b090000000000000000000000000000000000000000000000000000000000000004000000000000000000000000000000000000000000000000000000000000000a000000000000000000000000000000000000000000000000000000000000000020000000000000000000000000000000d81083b16ea76dfab46b0315b0edbf3d00000000000000000000000000000000c984aff541d6ce86bb697e68ec57873c8000000000000000000000000000000000000000000000000000000000000000200000000000000000000000000000000000000000000000000000000000000010000000000000000000000000000000000000000000000000000000000000001",
            "nonce": "0x0",
            "chainId": "0x14a34"
          },
          "additionalContracts": [],
          "isFixedGasLimit": false
        }
      ],
      "receipts": [
        {
          "status": "0x1",
          "cumulativeGasUsed": "0x84bb9a",
          "logs": [],
          "logsBloom": "0x00000000000000000000000000000000000000000000000000000000000000000000000000000000000000000000000000000000000000000000000000000000000000000000000000000000000000000000000000000000000000000000000000000000000000000000000000000000000000000000000000000000000000000000000000000000000000000000000000000000000000000000000000000000000000000000000000000000000000000000000000000000000000000000000000000000000000000000000000000000000000000000000000000000000000000000000000000000000000000000000000000000000000000000000000000000",
          "type": "0x2",
          "transactionHash": "0xb617f5e35a3fe95a76227bc0a9c3da1db00e28c4ab64f7e8519683e65c583217",
          "transactionIndex": "0x27",
          "blockHash": "0x1f0ddfaa0b302058a45f2437529042fcd29192d8d3a0308c9af91d6c80312bd8",
          "blockNumber": "0x162ac42",
          "gasUsed": "0x1135d",
          "effectiveGasPrice": "0x5a7464",
          "from": "0x0166ea90e565476f13c6a0d25ed2c35599e58785",
          "to": "0x0000000df7e6c9dc387cafc5ecbfa6c3a6179add",
          "contractAddress": null,
          "l1BaseFeeScalar": "0x44d",
          "l1BlobBaseFee": "0x1",
          "l1BlobBaseFeeScalar": "0xa118b",
          "l1Fee": "0x13abe93e0",
          "l1GasPrice": "0x88d69b49",
          "l1GasUsed": "0x829"
        }
      ],
      "libraries": [],
      "pending": [],
      "returns": {},
      "timestamp": 1742255964,
      "chain": 84532,
      "commit": "f5e82e5"
    },
    {
      "transactions": [
        {
          "hash": "0x373576c9f9c81e06797ad09523730d3c1030c54d1dba0e86cb995e44d63d71d0",
          "transactionType": "CALL",
          "contractName": null,
          "contractAddress": "0x0000000df7e6c9dc387cafc5ecbfa6c3a6179add",
          "function": "setPlugins(address[],bool[])",
          "arguments": [
            "[0x0000000d81083B16EA76dfab46B0315B0eDBF3d0, 0x0000000C984AFf541D6cE86Bb697e68ec57873C8]",
            "[true, true]"
          ],
          "transaction": {
            "from": "0x0166ea90e565476f13c6a0d25ed2c35599e58785",
            "to": "0x0000000df7e6c9dc387cafc5ecbfa6c3a6179add",
            "gas": "0x17c57",
            "value": "0x0",
            "input": "0xe034b090000000000000000000000000000000000000000000000000000000000000004000000000000000000000000000000000000000000000000000000000000000a000000000000000000000000000000000000000000000000000000000000000020000000000000000000000000000000d81083b16ea76dfab46b0315b0edbf3d00000000000000000000000000000000c984aff541d6ce86bb697e68ec57873c8000000000000000000000000000000000000000000000000000000000000000200000000000000000000000000000000000000000000000000000000000000010000000000000000000000000000000000000000000000000000000000000001",
            "nonce": "0x0",
            "chainId": "0xaa37dc"
          },
          "additionalContracts": [],
          "isFixedGasLimit": false
        }
      ],
      "receipts": [
        {
          "status": "0x1",
          "cumulativeGasUsed": "0x2bd595",
          "logs": [],
          "logsBloom": "0x00000000000000000000000000000000000000000000000000000000000000000000000000000000000000000000000000000000000000000000000000000000000000000000000000000000000000000000000000000000000000000000000000000000000000000000000000000000000000000000000000000000000000000000000000000000000000000000000000000000000000000000000000000000000000000000000000000000000000000000000000000000000000000000000000000000000000000000000000000000000000000000000000000000000000000000000000000000000000000000000000000000000000000000000000000000",
          "type": "0x2",
          "transactionHash": "0x373576c9f9c81e06797ad09523730d3c1030c54d1dba0e86cb995e44d63d71d0",
          "transactionIndex": "0x4",
          "blockHash": "0x7cc55804dcd5f0a69bcc14f6435907a998e527f814a5139dc2bfe66e39688a6c",
          "blockNumber": "0x180edde",
          "gasUsed": "0x1135d",
          "effectiveGasPrice": "0xf433f",
          "from": "0x0166ea90e565476f13c6a0d25ed2c35599e58785",
          "to": "0x0000000df7e6c9dc387cafc5ecbfa6c3a6179add",
          "contractAddress": null,
          "l1BaseFeeScalar": "0x1db0",
          "l1BlobBaseFee": "0x1",
          "l1BlobBaseFeeScalar": "0xd2730",
          "l1Fee": "0x8802e9806",
          "l1GasPrice": "0x890ffe50",
          "l1GasUsed": "0x829"
        }
      ],
      "libraries": [],
      "pending": [],
      "returns": {},
      "timestamp": 1742255965,
      "chain": 11155420,
      "commit": "f5e82e5"
    }
  ],
  "timestamp": 1742255976
}