{
  "transactions": [
    {
      "hash": "0xf566bc94492cc32fd466a715af13a5277925214652023343ea76a532d24031f9",
      "transactionType": "CALL",
      "contractName": null,
      "contractAddress": "0x0000000df7e6c9dc387cafc5ecbfa6c3a6179add",
      "function": "addStake(uint32)",
      "arguments": [
        "86400"
      ],
      "transaction": {
        "from": "0x0166ea90e565476f13c6a0d25ed2c35599e58785",
        "to": "0x0000000df7e6c9dc387cafc5ecbfa6c3a6179add",
        "gas": "0x1371b",
        "value": "0x16345785d8a0000",
        "input": "0x0396cb600000000000000000000000000000000000000000000000000000000000015180",
        "nonce": "0xb",
        "chainId": "0x66eee"
      },
      "additionalContracts": [],
      "isFixedGasLimit": false
    }
  ],
  "receipts": [
    {
      "status": "0x1",
      "cumulativeGasUsed": "0xebfa",
      "logs": [
        {
          "address": "0x0000000071727de22e5e9d8baf0edac6f37da032",
          "topics": [
            "0xa5ae833d0bb1dcd632d98a8b70973e8516812898e19bf27b70071ebc8dc52c01",
            "0x0000000000000000000000000000000df7e6c9dc387cafc5ecbfa6c3a6179add"
          ],
          "data": "0x000000000000000000000000000000000000000000000000016345785d8a00000000000000000000000000000000000000000000000000000000000000015180",
          "blockHash": "0x7fe8397d631e40d988c901d199dcea556579adb003e4bcbadc881c64ec3bef97",
          "blockNumber": "0x732dac4",
          "transactionHash": "0xf566bc94492cc32fd466a715af13a5277925214652023343ea76a532d24031f9",
          "transactionIndex": "0x1",
          "logIndex": "0x0",
          "removed": false
        }
      ],
      "logsBloom": "0x00000000000000000000000000000000000080000000000000000000000000000000000000000000000000000000000000000000000000000000000000000000000000000000000000000000000000000040000000000000000000000000000000000000000800000000000000000000000000000000000000000000000000000000000000000000000000000000000000000000000000000040000000000000000000000000000000000000000000000000000000000000000000000000000000000000000000400000000000000000000040000000000000000000000000000100000000000000000000000000000020000200000000000000000000000000",
      "type": "0x2",
      "transactionHash": "0xf566bc94492cc32fd466a715af13a5277925214652023343ea76a532d24031f9",
      "transactionIndex": "0x1",
      "blockHash": "0x7fe8397d631e40d988c901d199dcea556579adb003e4bcbadc881c64ec3bef97",
      "blockNumber": "0x732dac4",
      "gasUsed": "0xebfa",
      "effectiveGasPrice": "0x5f5e100",
      "from": "0x0166ea90e565476f13c6a0d25ed2c35599e58785",
      "to": "0x0000000df7e6c9dc387cafc5ecbfa6c3a6179add",
      "contractAddress": null,
      "gasUsedForL1": "0x64",
      "l1BlockNumber": "0x747c4f"
    }
  ],
  "libraries": [],
  "pending": [],
  "returns": {},
  "timestamp": 1738620704,
  "chain": 421614,
  "commit": "e4e888b"
}