{
  "transactions": [
    {
      "hash": "0x700cb7027234ee72d0945f710172c80572587dcc5e5a03635ddc3f9d08471a01",
      "transactionType": "CALL",
      "contractName": null,
      "contractAddress": "0x3e6b66a72b76850c372fbdf29f53268ad636b320",
      "function": "addStake(uint32)",
      "arguments": [
        "86400"
      ],
      "transaction": {
        "from": "0x0166ea90e565476f13c6a0d25ed2c35599e58785",
        "to": "0x3e6b66a72b76850c372fbdf29f53268ad636b320",
        "gas": "0x1f895",
        "value": "0x16345785d8a0000",
        "input": "0x0396cb600000000000000000000000000000000000000000000000000000000000015180",
        "nonce": "0x0",
        "chainId": "0x66eee"
      },
      "additionalContracts": [],
      "isFixedGasLimit": false
    }
  ],
  "receipts": [
    {
      "status": "0x1",
      "cumulativeGasUsed": "0x14d24",
      "logs": [
        {
          "address": "0x0000000071727de22e5e9d8baf0edac6f37da032",
          "topics": [
            "0xa5ae833d0bb1dcd632d98a8b70973e8516812898e19bf27b70071ebc8dc52c01",
            "0x0000000000000000000000003e6b66a72b76850c372fbdf29f53268ad636b320"
          ],
          "data": "0x000000000000000000000000000000000000000000000000016345785d8a00000000000000000000000000000000000000000000000000000000000000015180",
          "blockHash": "0xfb677d69221b07b573a46969cec61b9d63d8c15f745ecdbf642ca96cce3aa9ae",
          "blockNumber": "0x506a76b",
          "transactionHash": "0x700cb7027234ee72d0945f710172c80572587dcc5e5a03635ddc3f9d08471a01",
          "transactionIndex": "0x1",
          "logIndex": "0x0",
          "removed": false
        }
      ],
      "logsBloom": "0x00000000000000000000000200000000000000000000000000000000000000000000000000000000000000000000000000000000000000000000000000000000000000000000000000000000000000000040000000000000000000000000000000000000000800000000000000000000000000000000000000000000000000000000000000000000000000000000000004000020000000000000000000000000000000000000000000000000000000000000000000000000000000000000000000000000000000400000000000000000000040000000000000000000000000000100000000000000000000000000000000000200000000000000000000000000",
      "type": "0x2",
      "transactionHash": "0x700cb7027234ee72d0945f710172c80572587dcc5e5a03635ddc3f9d08471a01",
      "transactionIndex": "0x1",
      "blockHash": "0xfb677d69221b07b573a46969cec61b9d63d8c15f745ecdbf642ca96cce3aa9ae",
      "blockNumber": "0x506a76b",
      "gasUsed": "0x14d24",
      "effectiveGasPrice": "0xf2d0a50",
      "from": "0x0166ea90e565476f13c6a0d25ed2c35599e58785",
      "to": "0x3e6b66a72b76850c372fbdf29f53268ad636b320",
      "contractAddress": null,
      "gasUsedForL1": "0x618e",
      "l1BlockNumber": "0x673876"
    }
  ],
  "libraries": [],
  "pending": [],
  "returns": {},
  "timestamp": 1727376457,
  "chain": 421614,
  "commit": "e9c0223"
}