{
  "transactions": [
    {
      "hash": "0xac58ba5ff1ea896be1deb2932a22f63531da18a20884c9372c8a25d5502f1faf",
      "transactionType": "CALL",
      "contractName": null,
      "contractAddress": "0xc83d88c018d143d08afe910221d445189fc6817a",
      "function": "addStake(uint32)",
      "arguments": [
        "86400"
      ],
      "transaction": {
        "from": "0x0166ea90e565476f13c6a0d25ed2c35599e58785",
        "to": "0xc83d88c018d143d08afe910221d445189fc6817a",
        "gas": "0x1366f",
        "value": "0x16345785d8a0000",
        "input": "0x0396cb600000000000000000000000000000000000000000000000000000000000015180",
        "nonce": "0x2",
        "chainId": "0x66eee"
      },
      "additionalContracts": [],
      "isFixedGasLimit": false
    }
  ],
  "receipts": [
    {
      "status": "0x1",
      "cumulativeGasUsed": "0xeb96",
      "logs": [
        {
          "address": "0x0000000071727de22e5e9d8baf0edac6f37da032",
          "topics": [
            "0xa5ae833d0bb1dcd632d98a8b70973e8516812898e19bf27b70071ebc8dc52c01",
            "0x000000000000000000000000c83d88c018d143d08afe910221d445189fc6817a"
          ],
          "data": "0x000000000000000000000000000000000000000000000000016345785d8a00000000000000000000000000000000000000000000000000000000000000015180",
          "blockHash": "0x7a3325e28af2f4bd159ddb2a70286bf1026ff126cf072839faa701a1ff83a305",
          "blockNumber": "0x517f41e",
          "transactionHash": "0xac58ba5ff1ea896be1deb2932a22f63531da18a20884c9372c8a25d5502f1faf",
          "transactionIndex": "0x1",
          "logIndex": "0x0",
          "removed": false
        }
      ],
      "logsBloom": "0x00000000000000000000000000000000000000000000000000000000000000000000000000000000000000000000000000000300000000000000000000000000000000000000000000000000000000000040000000000000000000000000000000000000000800000000000000000000000000000000000000000000000000000000000000000000000000000000000000000000000000000000000000000000000000000000000000000000000000000000000000000000000000000000000000000000000000400000000000000000000040000080000000000000000000000100000000000000000000000000000000000200000000000000000000000000",
      "type": "0x2",
      "transactionHash": "0xac58ba5ff1ea896be1deb2932a22f63531da18a20884c9372c8a25d5502f1faf",
      "transactionIndex": "0x1",
      "blockHash": "0x7a3325e28af2f4bd159ddb2a70286bf1026ff126cf072839faa701a1ff83a305",
      "blockNumber": "0x517f41e",
      "gasUsed": "0xeb96",
      "effectiveGasPrice": "0x5f5e100",
      "from": "0x0166ea90e565476f13c6a0d25ed2c35599e58785",
      "to": "0xc83d88c018d143d08afe910221d445189fc6817a",
      "contractAddress": null,
      "gasUsedForL1": "0x0",
      "l1BlockNumber": "0x67b538"
    }
  ],
  "libraries": [],
  "pending": [],
  "returns": {},
  "timestamp": 1727819308,
  "chain": 421614,
  "commit": "2549e72"
}