{
  "transactions": [
    {
      "hash": "0x8e171d07ab703d3b7cf46c3b697497505c5f3ba770722a040c9ee1cb7f9a6def",
      "transactionType": "CALL",
      "contractName": null,
      "contractAddress": "0xc83d88c018d143d08afe910221d445189fc6817a",
      "function": "setPlugins(address[],bool[])",
      "arguments": [
        "[0x3c95978Af08B6B2Fd82659B393be86AfB4bd3D6F, 0x5a2262d58eB72B84701D6efBf6bB6586C793A65b, 0x03431Fb00fB2e26b5bC502DFeF8dA30E1C8643b8]",
        "[true, true, true]"
      ],
      "transaction": {
        "from": "0x0166ea90e565476f13c6a0d25ed2c35599e58785",
        "to": "0xc83d88c018d143d08afe910221d445189fc6817a",
        "gas": "0x21669",
        "value": "0x0",
        "input": "0xe034b090000000000000000000000000000000000000000000000000000000000000004000000000000000000000000000000000000000000000000000000000000000c000000000000000000000000000000000000000000000000000000000000000030000000000000000000000003c95978af08b6b2fd82659b393be86afb4bd3d6f0000000000000000000000005a2262d58eb72b84701d6efbf6bb6586c793a65b00000000000000000000000003431fb00fb2e26b5bc502dfef8da30e1c8643b80000000000000000000000000000000000000000000000000000000000000003000000000000000000000000000000000000000000000000000000000000000100000000000000000000000000000000000000000000000000000000000000010000000000000000000000000000000000000000000000000000000000000001",
        "nonce": "0x1",
        "chainId": "0x1"
      },
      "additionalContracts": [],
      "isFixedGasLimit": false
    }
  ],
  "receipts": [
    {
      "status": "0x1",
      "cumulativeGasUsed": "0xfb44b5",
      "logs": [],
      "logsBloom": "0x00000000000000000000000000000000000000000000000000000000000000000000000000000000000000000000000000000000000000000000000000000000000000000000000000000000000000000000000000000000000000000000000000000000000000000000000000000000000000000000000000000000000000000000000000000000000000000000000000000000000000000000000000000000000000000000000000000000000000000000000000000000000000000000000000000000000000000000000000000000000000000000000000000000000000000000000000000000000000000000000000000000000000000000000000000000",
      "type": "0x2",
      "transactionHash": "0x8e171d07ab703d3b7cf46c3b697497505c5f3ba770722a040c9ee1cb7f9a6def",
      "transactionIndex": "0x7f",
      "blockHash": "0x809fd4bf7613d2a5b906fcdcfbb71f47f3821e34cb4ceaa3f2c5003a09d5065f",
      "blockNumber": "0x1411fcf",
      "gasUsed": "0x16d69",
      "effectiveGasPrice": "0x1343c6f72",
      "from": "0x0166ea90e565476f13c6a0d25ed2c35599e58785",
      "to": "0xc83d88c018d143d08afe910221d445189fc6817a",
      "contractAddress": null
    }
  ],
  "libraries": [],
  "pending": [],
  "returns": {},
  "timestamp": 1729890244,
  "chain": 1,
  "commit": "14fff0d"
}