{
  "deployments": [
    {
      "transactions": [
        {
          "hash": "0xf7a86ec47a6c082e57a238681b84f495153dae4c8c9860e9d42b184c28a33579",
          "transactionType": "CALL",
          "contractName": null,
          "contractAddress": "0x0000000df7e6c9dc387cafc5ecbfa6c3a6179add",
          "function": "setPlugins(address[],bool[])",
          "arguments": [
            "[0x0000000d81083B16EA76dfab46B0315B0eDBF3d0, 0x0000000C984AFf541D6cE86Bb697e68ec57873C8]",
            "[true, true]"
          ],
          "transaction": {
            "from": "0x0166ea90e565476f13c6a0d25ed2c35599e58785",
            "to": "0x0000000df7e6c9dc387cafc5ecbfa6c3a6179add",
            "gas": "0x1a3bf",
            "value": "0x0",
            "input": "0xe034b090000000000000000000000000000000000000000000000000000000000000004000000000000000000000000000000000000000000000000000000000000000a000000000000000000000000000000000000000000000000000000000000000020000000000000000000000000000000d81083b16ea76dfab46b0315b0edbf3d00000000000000000000000000000000c984aff541d6ce86bb697e68ec57873c8000000000000000000000000000000000000000000000000000000000000000200000000000000000000000000000000000000000000000000000000000000010000000000000000000000000000000000000000000000000000000000000001",
            "nonce": "0x5",
            "chainId": "0xa4b1"
          },
          "additionalContracts": [],
          "isFixedGasLimit": false
        }
      ],
      "receipts": [
        {
          "status": "0x1",
          "cumulativeGasUsed": "0x1347a",
          "logs": [],
          "logsBloom": "0x00000000000000000000000000000000000000000000000000000000000000000000000000000000000000000000000000000000000000000000000000000000000000000000000000000000000000000000000000000000000000000000000000000000000000000000000000000000000000000000000000000000000000000000000000000000000000000000000000000000000000000000000000000000000000000000000000000000000000000000000000000000000000000000000000000000000000000000000000000000000000000000000000000000000000000000000000000000000000000000000000000000000000000000000000000000",
          "type": "0x2",
          "transactionHash": "0xf7a86ec47a6c082e57a238681b84f495153dae4c8c9860e9d42b184c28a33579",
          "transactionIndex": "0x1",
          "blockHash": "0xa943cbeb5bcebc4156ae18411a83fa35a9f771d09d02bd7c7ab1f10ba8dd27cf",
          "blockNumber": "0x120fcc80",
          "gasUsed": "0x1347a",
          "effectiveGasPrice": "0x989680",
          "from": "0x0166ea90e565476f13c6a0d25ed2c35599e58785",
          "to": "0x0000000df7e6c9dc387cafc5ecbfa6c3a6179add",
          "contractAddress": null,
          "gasUsedForL1": "0x211d",
          "l1BlockNumber": "0x14c6263"
        }
      ],
      "libraries": [],
      "pending": [],
      "returns": {},
      "timestamp": 1738792781,
      "chain": 42161,
      "commit": "51472d3"
    },
    {
      "transactions": [
        {
          "hash": "0x8af5641f29c0a71060c8c18494d10fc224c6d190c2aa8ad738659353ac10d260",
          "transactionType": "CALL",
          "contractName": null,
          "contractAddress": "0x0000000df7e6c9dc387cafc5ecbfa6c3a6179add",
          "function": "setPlugins(address[],bool[])",
          "arguments": [
            "[0x0000000d81083B16EA76dfab46B0315B0eDBF3d0, 0x0000000C984AFf541D6cE86Bb697e68ec57873C8]",
            "[true, true]"
          ],
          "transaction": {
            "from": "0x0166ea90e565476f13c6a0d25ed2c35599e58785",
            "to": "0x0000000df7e6c9dc387cafc5ecbfa6c3a6179add",
            "gas": "0x17c57",
            "value": "0x0",
            "input": "0xe034b090000000000000000000000000000000000000000000000000000000000000004000000000000000000000000000000000000000000000000000000000000000a000000000000000000000000000000000000000000000000000000000000000020000000000000000000000000000000d81083b16ea76dfab46b0315b0edbf3d00000000000000000000000000000000c984aff541d6ce86bb697e68ec57873c8000000000000000000000000000000000000000000000000000000000000000200000000000000000000000000000000000000000000000000000000000000010000000000000000000000000000000000000000000000000000000000000001",
            "nonce": "0x0",
            "chainId": "0x515"
          },
          "additionalContracts": [],
          "isFixedGasLimit": false
        }
      ],
      "receipts": [
        {
          "status": "0x1",
          "cumulativeGasUsed": "0x2485a",
          "logs": [],
          "logsBloom": "0x00000000000000000000000000000000000000000000000000000000000000000000000000000000000000000000000000000000000000000000000000000000000000000000000000000000000000000000000000000000000000000000000000000000000000000000000000000000000000000000000000000000000000000000000000000000000000000000000000000000000000000000000000000000000000000000000000000000000000000000000000000000000000000000000000000000000000000000000000000000000000000000000000000000000000000000000000000000000000000000000000000000000000000000000000000000",
          "type": "0x2",
          "transactionHash": "0x8af5641f29c0a71060c8c18494d10fc224c6d190c2aa8ad738659353ac10d260",
          "transactionIndex": "0x2",
          "blockHash": "0xb91526bd4c0e81f8b783743e2ff3294fde3e72236d18d1dbbb9a6b64d80174b6",
          "blockNumber": "0xb6320b",
          "gasUsed": "0x1135d",
          "effectiveGasPrice": "0xf56ca",
          "from": "0x0166ea90e565476f13c6a0d25ed2c35599e58785",
          "to": "0x0000000df7e6c9dc387cafc5ecbfa6c3a6179add",
          "contractAddress": null,
          "l1BaseFeeScalar": "0x7d0",
          "l1BlobBaseFee": "0x1",
          "l1BlobBaseFeeScalar": "0xdbba0",
          "l1Fee": "0x1241fdd33",
          "l1GasPrice": "0x465dd50a",
          "l1GasUsed": "0x81b"
        }
      ],
      "libraries": [],
      "pending": [],
      "returns": {},
      "timestamp": 1738792782,
      "chain": 1301,
      "commit": "51472d3"
    },
    {
      "transactions": [
        {
          "hash": "0x5d5fd5e0069264b191b37ef3c14e067a171d87e472e3c04225c604868c6d72eb",
          "transactionType": "CALL",
          "contractName": null,
          "contractAddress": "0x0000000df7e6c9dc387cafc5ecbfa6c3a6179add",
          "function": "setPlugins(address[],bool[])",
          "arguments": [
            "[0x0000000d81083B16EA76dfab46B0315B0eDBF3d0, 0x0000000C984AFf541D6cE86Bb697e68ec57873C8]",
            "[true, true]"
          ],
          "transaction": {
            "from": "0x0166ea90e565476f13c6a0d25ed2c35599e58785",
            "to": "0x0000000df7e6c9dc387cafc5ecbfa6c3a6179add",
            "gas": "0x17c57",
            "value": "0x0",
            "input": "0xe034b090000000000000000000000000000000000000000000000000000000000000004000000000000000000000000000000000000000000000000000000000000000a000000000000000000000000000000000000000000000000000000000000000020000000000000000000000000000000d81083b16ea76dfab46b0315b0edbf3d00000000000000000000000000000000c984aff541d6ce86bb697e68ec57873c8000000000000000000000000000000000000000000000000000000000000000200000000000000000000000000000000000000000000000000000000000000010000000000000000000000000000000000000000000000000000000000000001",
            "nonce": "0x0",
            "chainId": "0x82"
          },
          "additionalContracts": [],
          "isFixedGasLimit": false
        }
      ],
      "receipts": [
        {
          "status": "0x1",
          "cumulativeGasUsed": "0x1bee7",
          "logs": [],
          "logsBloom": "0x00000000000000000000000000000000000000000000000000000000000000000000000000000000000000000000000000000000000000000000000000000000000000000000000000000000000000000000000000000000000000000000000000000000000000000000000000000000000000000000000000000000000000000000000000000000000000000000000000000000000000000000000000000000000000000000000000000000000000000000000000000000000000000000000000000000000000000000000000000000000000000000000000000000000000000000000000000000000000000000000000000000000000000000000000000000",
          "type": "0x2",
          "transactionHash": "0x5d5fd5e0069264b191b37ef3c14e067a171d87e472e3c04225c604868c6d72eb",
          "transactionIndex": "0x1",
          "blockHash": "0x25ef2153b71892efae8623004bf1b6068e0950932a6d4952fb6e4fbe99513583",
          "blockNumber": "0x7abf94",
          "gasUsed": "0x1135d",
          "effectiveGasPrice": "0xfd",
          "from": "0x0166ea90e565476f13c6a0d25ed2c35599e58785",
          "to": "0x0000000df7e6c9dc387cafc5ecbfa6c3a6179add",
          "contractAddress": null,
          "l1BaseFeeScalar": "0x7d0",
          "l1BlobBaseFee": "0xf5358",
          "l1BlobBaseFeeScalar": "0xdbba0",
          "l1Fee": "0x12f3b3ed0",
          "l1GasPrice": "0x49caa022",
          "l1GasUsed": "0x7d8"
        }
      ],
      "libraries": [],
      "pending": [],
      "returns": {},
      "timestamp": 1738792783,
      "chain": 130,
      "commit": "51472d3"
    }
  ],
  "timestamp": 1738792796
}