{
  "transactions": [
    {
      "hash": "0x3c41ba9b6f2b40dd68887e923ca9db32efe4419414163b33c5101b05591c9092",
      "transactionType": "CALL",
      "contractName": null,
      "contractAddress": "0x0000000df7e6c9dc387cafc5ecbfa6c3a6179add",
      "function": "setPlugins(address[],bool[])",
      "arguments": [
        "[0x0000000d81083B16EA76dfab46B0315B0eDBF3d0, 0x0000000C984AFf541D6cE86Bb697e68ec57873C8]",
        "[true, true]"
      ],
      "transaction": {
        "from": "0x0166ea90e565476f13c6a0d25ed2c35599e58785",
        "to": "0x0000000df7e6c9dc387cafc5ecbfa6c3a6179add",
        "gas": "0x16a81",
        "value": "0x0",
        "input": "0xe034b090000000000000000000000000000000000000000000000000000000000000004000000000000000000000000000000000000000000000000000000000000000a000000000000000000000000000000000000000000000000000000000000000020000000000000000000000000000000d81083b16ea76dfab46b0315b0edbf3d00000000000000000000000000000000c984aff541d6ce86bb697e68ec57873c8000000000000000000000000000000000000000000000000000000000000000200000000000000000000000000000000000000000000000000000000000000010000000000000000000000000000000000000000000000000000000000000001",
        "nonce": "0xa",
        "chainId": "0x66eee"
      },
      "additionalContracts": [],
      "isFixedGasLimit": false
    }
  ],
  "receipts": [
    {
      "status": "0x1",
      "cumulativeGasUsed": "0x70ec5",
      "logs": [],
      "logsBloom": "0x00000000000000000000000000000000000000000000000000000000000000000000000000000000000000000000000000000000000000000000000000000000000000000000000000000000000000000000000000000000000000000000000000000000000000000000000000000000000000000000000000000000000000000000000000000000000000000000000000000000000000000000000000000000000000000000000000000000000000000000000000000000000000000000000000000000000000000000000000000000000000000000000000000000000000000000000000000000000000000000000000000000000000000000000000000000",
      "type": "0x2",
      "transactionHash": "0x3c41ba9b6f2b40dd68887e923ca9db32efe4419414163b33c5101b05591c9092",
      "transactionIndex": "0x2",
      "blockHash": "0xe1e954112f2c7c6498b94c0edbce9a7ae2df8d039df6dafc41dec27a69d5a712",
      "blockNumber": "0x732d68f",
      "gasUsed": "0x11375",
      "effectiveGasPrice": "0x5f5e100",
      "from": "0x0166ea90e565476f13c6a0d25ed2c35599e58785",
      "to": "0x0000000df7e6c9dc387cafc5ecbfa6c3a6179add",
      "contractAddress": null,
      "gasUsedForL1": "0x18",
      "l1BlockNumber": "0x747c33"
    }
  ],
  "libraries": [],
  "pending": [],
  "returns": {},
  "timestamp": 1738620346,
  "chain": 421614,
  "commit": "e4e888b"
}