{
  "deployments": [
    {
      "transactions": [
        {
          "hash": "0x5f442b1a5944fde6dcd74f534612d40cbe84817883c12a7abdcce4d59bb84741",
          "transactionType": "CALL",
          "contractName": null,
          "contractAddress": "0x0000000df7e6c9dc387cafc5ecbfa6c3a6179add",
          "function": "setPlugins(address[],bool[])",
          "arguments": [
            "[0x0000000d81083B16EA76dfab46B0315B0eDBF3d0, 0x0000000C984AFf541D6cE86Bb697e68ec57873C8]",
            "[true, true]"
          ],
          "transaction": {
            "from": "0x0166ea90e565476f13c6a0d25ed2c35599e58785",
            "to": "0x0000000df7e6c9dc387cafc5ecbfa6c3a6179add",
            "gas": "0x17c57",
            "value": "0x0",
            "input": "0xe034b090000000000000000000000000000000000000000000000000000000000000004000000000000000000000000000000000000000000000000000000000000000a000000000000000000000000000000000000000000000000000000000000000020000000000000000000000000000000d81083b16ea76dfab46b0315b0edbf3d00000000000000000000000000000000c984aff541d6ce86bb697e68ec57873c8000000000000000000000000000000000000000000000000000000000000000200000000000000000000000000000000000000000000000000000000000000010000000000000000000000000000000000000000000000000000000000000001",
            "nonce": "0x0",
            "chainId": "0xa869"
          },
          "additionalContracts": [],
          "isFixedGasLimit": false
        }
      ],
      "receipts": [
        {
          "status": "0x1",
          "cumulativeGasUsed": "0x16aaa8",
          "logs": [],
          "logsBloom": "0x00000000000000000000000000000000000000000000000000000000000000000000000000000000000000000000000000000000000000000000000000000000000000000000000000000000000000000000000000000000000000000000000000000000000000000000000000000000000000000000000000000000000000000000000000000000000000000000000000000000000000000000000000000000000000000000000000000000000000000000000000000000000000000000000000000000000000000000000000000000000000000000000000000000000000000000000000000000000000000000000000000000000000000000000000000000",
          "type": "0x2",
          "transactionHash": "0x5f442b1a5944fde6dcd74f534612d40cbe84817883c12a7abdcce4d59bb84741",
          "transactionIndex": "0x6",
          "blockHash": "0x3fe12a6bb71176d247e966af8ae65e14ca7893e8c89fd4bde413bb4653262aae",
          "blockNumber": "0x28f3035",
          "gasUsed": "0x1135d",
          "effectiveGasPrice": "0x393",
          "from": "0x0166ea90e565476f13c6a0d25ed2c35599e58785",
          "to": "0x0000000df7e6c9dc387cafc5ecbfa6c3a6179add",
          "contractAddress": null
        }
      ],
      "libraries": [],
      "pending": [],
      "returns": {},
      "timestamp": 1751560568,
      "chain": 43113,
      "commit": "f96b79b"
    },
    {
      "transactions": [
        {
          "hash": "0x98d7deec186a97616f3c21759ebbe363f8ada9a11921b034750de8421413277a",
          "transactionType": "CALL",
          "contractName": null,
          "contractAddress": "0x0000000df7e6c9dc387cafc5ecbfa6c3a6179add",
          "function": "setPlugins(address[],bool[])",
          "arguments": [
            "[0x0000000d81083B16EA76dfab46B0315B0eDBF3d0, 0x0000000C984AFf541D6cE86Bb697e68ec57873C8]",
            "[true, true]"
          ],
          "transaction": {
            "from": "0x0166ea90e565476f13c6a0d25ed2c35599e58785",
            "to": "0x0000000df7e6c9dc387cafc5ecbfa6c3a6179add",
            "gas": "0x17c57",
            "value": "0x0",
            "input": "0xe034b090000000000000000000000000000000000000000000000000000000000000004000000000000000000000000000000000000000000000000000000000000000a000000000000000000000000000000000000000000000000000000000000000020000000000000000000000000000000d81083b16ea76dfab46b0315b0edbf3d00000000000000000000000000000000c984aff541d6ce86bb697e68ec57873c8000000000000000000000000000000000000000000000000000000000000000200000000000000000000000000000000000000000000000000000000000000010000000000000000000000000000000000000000000000000000000000000001",
            "nonce": "0x0",
            "chainId": "0xa86a"
          },
          "additionalContracts": [],
          "isFixedGasLimit": false
        }
      ],
      "receipts": [
        {
          "status": "0x1",
          "cumulativeGasUsed": "0xde28d",
          "logs": [],
          "logsBloom": "0x00000000000000000000000000000000000000000000000000000000000000000000000000000000000000000000000000000000000000000000000000000000000000000000000000000000000000000000000000000000000000000000000000000000000000000000000000000000000000000000000000000000000000000000000000000000000000000000000000000000000000000000000000000000000000000000000000000000000000000000000000000000000000000000000000000000000000000000000000000000000000000000000000000000000000000000000000000000000000000000000000000000000000000000000000000000",
          "type": "0x2",
          "transactionHash": "0x98d7deec186a97616f3c21759ebbe363f8ada9a11921b034750de8421413277a",
          "transactionIndex": "0xa",
          "blockHash": "0xc0d17dee744c1a785fb0a1ef60a2a9b01caea78cfdfba8c1fd3b53cb945f3963",
          "blockNumber": "0x3de2c31",
          "gasUsed": "0x1135d",
          "effectiveGasPrice": "0xf95cadb",
          "from": "0x0166ea90e565476f13c6a0d25ed2c35599e58785",
          "to": "0x0000000df7e6c9dc387cafc5ecbfa6c3a6179add",
          "contractAddress": null
        }
      ],
      "libraries": [],
      "pending": [],
      "returns": {},
      "timestamp": 1751560569,
      "chain": 43114,
      "commit": "f96b79b"
    }
  ],
  "timestamp": 1751560577
}