{
  "deployments": [
    {
      "transactions": [
        {
          "hash": "0x271abaec9bc319bab8355c7e17e7253182fcc7ea40e27d8081536c33b29a1e94",
          "transactionType": "CALL",
          "contractName": null,
          "contractAddress": "0x0000000df7e6c9dc387cafc5ecbfa6c3a6179add",
          "function": "setPlugins(address[],bool[])",
          "arguments": [
            "[0x0000000d81083B16EA76dfab46B0315B0eDBF3d0, 0x0000000C984AFf541D6cE86Bb697e68ec57873C8]",
            "[true, true]"
          ],
          "transaction": {
            "from": "0x0166ea90e565476f13c6a0d25ed2c35599e58785",
            "to": "0x0000000df7e6c9dc387cafc5ecbfa6c3a6179add",
            "gas": "0x17c57",
            "value": "0x0",
            "input": "0xe034b090000000000000000000000000000000000000000000000000000000000000004000000000000000000000000000000000000000000000000000000000000000a000000000000000000000000000000000000000000000000000000000000000020000000000000000000000000000000d81083b16ea76dfab46b0315b0edbf3d00000000000000000000000000000000c984aff541d6ce86bb697e68ec57873c8000000000000000000000000000000000000000000000000000000000000000200000000000000000000000000000000000000000000000000000000000000010000000000000000000000000000000000000000000000000000000000000001",
            "nonce": "0x5",
            "chainId": "0x1"
          },
          "additionalContracts": [],
          "isFixedGasLimit": false
        }
      ],
      "receipts": [
        {
          "status": "0x1",
          "cumulativeGasUsed": "0x16a9dc3",
          "logs": [],
          "logsBloom": "0x00000000000000000000000000000000000000000000000000000000000000000000000000000000000000000000000000000000000000000000000000000000000000000000000000000000000000000000000000000000000000000000000000000000000000000000000000000000000000000000000000000000000000000000000000000000000000000000000000000000000000000000000000000000000000000000000000000000000000000000000000000000000000000000000000000000000000000000000000000000000000000000000000000000000000000000000000000000000000000000000000000000000000000000000000000000",
          "type": "0x2",
          "transactionHash": "0x271abaec9bc319bab8355c7e17e7253182fcc7ea40e27d8081536c33b29a1e94",
          "transactionIndex": "0xc6",
          "blockHash": "0x863f1506b546feac3cee5267bb18ff239d9e41034b8588d6a1b5f81cbfb946e3",
          "blockNumber": "0x14c61b4",
          "gasUsed": "0x1135d",
          "effectiveGasPrice": "0x472cde36",
          "from": "0x0166ea90e565476f13c6a0d25ed2c35599e58785",
          "to": "0x0000000df7e6c9dc387cafc5ecbfa6c3a6179add",
          "contractAddress": null
        }
      ],
      "libraries": [],
      "pending": [],
      "returns": {},
      "timestamp": 1738790658,
      "chain": 1,
      "commit": "51472d3"
    },
    {
      "transactions": [
        {
          "hash": "0xf354cfd104db51ab29f0c32853d3516392415a9fc98bab36f86ad9c77c15e034",
          "transactionType": "CALL",
          "contractName": null,
          "contractAddress": "0x0000000df7e6c9dc387cafc5ecbfa6c3a6179add",
          "function": "setPlugins(address[],bool[])",
          "arguments": [
            "[0x0000000d81083B16EA76dfab46B0315B0eDBF3d0, 0x0000000C984AFf541D6cE86Bb697e68ec57873C8]",
            "[true, true]"
          ],
          "transaction": {
            "from": "0x0166ea90e565476f13c6a0d25ed2c35599e58785",
            "to": "0x0000000df7e6c9dc387cafc5ecbfa6c3a6179add",
            "gas": "0x17c57",
            "value": "0x0",
            "input": "0xe034b090000000000000000000000000000000000000000000000000000000000000004000000000000000000000000000000000000000000000000000000000000000a000000000000000000000000000000000000000000000000000000000000000020000000000000000000000000000000d81083b16ea76dfab46b0315b0edbf3d00000000000000000000000000000000c984aff541d6ce86bb697e68ec57873c8000000000000000000000000000000000000000000000000000000000000000200000000000000000000000000000000000000000000000000000000000000010000000000000000000000000000000000000000000000000000000000000001",
            "nonce": "0xd",
            "chainId": "0xaa36a7"
          },
          "additionalContracts": [],
          "isFixedGasLimit": false
        }
      ],
      "receipts": [
        {
          "status": "0x1",
          "cumulativeGasUsed": "0xc135f1",
          "logs": [],
          "logsBloom": "0x00000000000000000000000000000000000000000000000000000000000000000000000000000000000000000000000000000000000000000000000000000000000000000000000000000000000000000000000000000000000000000000000000000000000000000000000000000000000000000000000000000000000000000000000000000000000000000000000000000000000000000000000000000000000000000000000000000000000000000000000000000000000000000000000000000000000000000000000000000000000000000000000000000000000000000000000000000000000000000000000000000000000000000000000000000000",
          "type": "0x2",
          "transactionHash": "0xf354cfd104db51ab29f0c32853d3516392415a9fc98bab36f86ad9c77c15e034",
          "transactionIndex": "0x57",
          "blockHash": "0x3800446841700609c4707072cb4514454cb6b1d47c7c3e9a4099da4b6d8dffc0",
          "blockNumber": "0x74b0a5",
          "gasUsed": "0x1135d",
          "effectiveGasPrice": "0x46640d3d",
          "from": "0x0166ea90e565476f13c6a0d25ed2c35599e58785",
          "to": "0x0000000df7e6c9dc387cafc5ecbfa6c3a6179add",
          "contractAddress": null
        }
      ],
      "libraries": [],
      "pending": [],
      "returns": {},
      "timestamp": 1738790659,
      "chain": 11155111,
      "commit": "51472d3"
    },
    {
      "transactions": [
        {
          "hash": "0xdc58bf853fc577ae90784f492499966d27cff6ceb77abd66d33b1954225e032f",
          "transactionType": "CALL",
          "contractName": null,
          "contractAddress": "0x0000000df7e6c9dc387cafc5ecbfa6c3a6179add",
          "function": "setPlugins(address[],bool[])",
          "arguments": [
            "[0x0000000d81083B16EA76dfab46B0315B0eDBF3d0, 0x0000000C984AFf541D6cE86Bb697e68ec57873C8]",
            "[true, true]"
          ],
          "transaction": {
            "from": "0x0166ea90e565476f13c6a0d25ed2c35599e58785",
            "to": "0x0000000df7e6c9dc387cafc5ecbfa6c3a6179add",
            "gas": "0x17c57",
            "value": "0x0",
            "input": "0xe034b090000000000000000000000000000000000000000000000000000000000000004000000000000000000000000000000000000000000000000000000000000000a000000000000000000000000000000000000000000000000000000000000000020000000000000000000000000000000d81083b16ea76dfab46b0315b0edbf3d00000000000000000000000000000000c984aff541d6ce86bb697e68ec57873c8000000000000000000000000000000000000000000000000000000000000000200000000000000000000000000000000000000000000000000000000000000010000000000000000000000000000000000000000000000000000000000000001",
            "nonce": "0x3",
            "chainId": "0x89"
          },
          "additionalContracts": [],
          "isFixedGasLimit": false
        }
      ],
      "receipts": [
        {
          "status": "0x1",
          "cumulativeGasUsed": "0x7c44c4",
          "logs": [
            {
              "address": "0x0000000000000000000000000000000000001010",
              "topics": [
                "0x4dfe1bbbcf077ddc3e01291eea2d5c70c2b422b415d95645b9adcfd678cb1d63",
                "0x0000000000000000000000000000000000000000000000000000000000001010",
                "0x0000000000000000000000000166ea90e565476f13c6a0d25ed2c35599e58785",
                "0x0000000000000000000000007c7379531b2aee82e4ca06d4175d13b9cbeafd49"
              ],
              "data": "0x000000000000000000000000000000000000000000000000000762381cc55f0600000000000000000000000000000000000000000000000002b106d0b72f44ed000000000000000000000000000000000000000000036ef8738dd5edebbbd1c900000000000000000000000000000000000000000000000002a9a4989a69e5e7000000000000000000000000000000000000000000036ef873953826088130cf",
              "blockHash": "0x2705e8a87dfc9d14fac1502968b6dd035e9fcfc1237e0fb706f4ec867d557980",
              "blockNumber": "0x407387c",
              "transactionHash": "0xdc58bf853fc577ae90784f492499966d27cff6ceb77abd66d33b1954225e032f",
              "transactionIndex": "0x3d",
              "logIndex": "0xe9",
              "removed": false
            }
          ],
          "logsBloom": "0x00000000000000000000000000000000000000000000000000000000000000400000000000008000000000000000000000008000004000000000000000000000000000000000000000000000000000800000000000400000000100000000000000000000000000000000000000000000000000000000000080000000000000000000000000000000000000000000000000000000000000000000000000000000200000000000000000000000000000000000000000000000000000000000004000000000000000000001000000000000000000000000000000100000000000000000000000000000000000000000000000000000000000000000000000140000",
          "type": "0x2",
          "transactionHash": "0xdc58bf853fc577ae90784f492499966d27cff6ceb77abd66d33b1954225e032f",
          "transactionIndex": "0x3d",
          "blockHash": "0x2705e8a87dfc9d14fac1502968b6dd035e9fcfc1237e0fb706f4ec867d557980",
          "blockNumber": "0x407387c",
          "gasUsed": "0x1135d",
          "effectiveGasPrice": "0x71dca666e",
          "from": "0x0166ea90e565476f13c6a0d25ed2c35599e58785",
          "to": "0x0000000df7e6c9dc387cafc5ecbfa6c3a6179add",
          "contractAddress": null
        }
      ],
      "libraries": [],
      "pending": [],
      "returns": {},
      "timestamp": 1738790660,
      "chain": 137,
      "commit": "51472d3"
    },
    {
      "transactions": [
        {
          "hash": "0xa92ec04f32942dcb9ad77e00384ed728e328336942802be1b02edf8918cabf59",
          "transactionType": "CALL",
          "contractName": null,
          "contractAddress": "0x0000000df7e6c9dc387cafc5ecbfa6c3a6179add",
          "function": "setPlugins(address[],bool[])",
          "arguments": [
            "[0x0000000d81083B16EA76dfab46B0315B0eDBF3d0, 0x0000000C984AFf541D6cE86Bb697e68ec57873C8]",
            "[true, true]"
          ],
          "transaction": {
            "from": "0x0166ea90e565476f13c6a0d25ed2c35599e58785",
            "to": "0x0000000df7e6c9dc387cafc5ecbfa6c3a6179add",
            "gas": "0x17c57",
            "value": "0x0",
            "input": "0xe034b090000000000000000000000000000000000000000000000000000000000000004000000000000000000000000000000000000000000000000000000000000000a000000000000000000000000000000000000000000000000000000000000000020000000000000000000000000000000d81083b16ea76dfab46b0315b0edbf3d00000000000000000000000000000000c984aff541d6ce86bb697e68ec57873c8000000000000000000000000000000000000000000000000000000000000000200000000000000000000000000000000000000000000000000000000000000010000000000000000000000000000000000000000000000000000000000000001",
            "nonce": "0x12",
            "chainId": "0x13882"
          },
          "additionalContracts": [],
          "isFixedGasLimit": false
        }
      ],
      "receipts": [
        {
          "status": "0x1",
          "cumulativeGasUsed": "0x1135d",
          "logs": [
            {
              "address": "0x0000000000000000000000000000000000001010",
              "topics": [
                "0x4dfe1bbbcf077ddc3e01291eea2d5c70c2b422b415d95645b9adcfd678cb1d63",
                "0x0000000000000000000000000000000000000000000000000000000000001010",
                "0x0000000000000000000000000166ea90e565476f13c6a0d25ed2c35599e58785",
                "0x0000000000000000000000006dc2dd54f24979ec26212794c71afefed722280c"
              ],
              "data": "0x000000000000000000000000000000000000000000000000000dc6372e52faa300000000000000000000000000000000000000000000000004c6065d7496444b0000000000000000000000000000000000000000000005a33964076fb386f47900000000000000000000000000000000000000000000000004b84026464349a80000000000000000000000000000000000000000000005a33971cda6e1d9ef1c",
              "blockHash": "0x9e20acee40bac1f168145b73f0866596aa713c7458ed2d4b05b710bbffe72330",
              "blockNumber": "0x10e6ef1",
              "transactionHash": "0xa92ec04f32942dcb9ad77e00384ed728e328336942802be1b02edf8918cabf59",
              "transactionIndex": "0x0",
              "logIndex": "0x0",
              "removed": false
            }
          ],
          "logsBloom": "0x00000000000000000000000000000000000000000000000000000000000000000000000000008000000000000000000000008000004000000000000000000000000000000000000000000000000000800000000000000000000100080000000000000000000000000000000000000000000000000000000080000000000000020000000000000000000000000040000000000000000000000000000000000000200000000000000000000000000000000000000000000000000000000000004000000000000000000001000000000000000000000000000000100000000000000000000000000000000000000000000000000000000000000000000000140000",
          "type": "0x2",
          "transactionHash": "0xa92ec04f32942dcb9ad77e00384ed728e328336942802be1b02edf8918cabf59",
          "transactionIndex": "0x0",
          "blockHash": "0x9e20acee40bac1f168145b73f0866596aa713c7458ed2d4b05b710bbffe72330",
          "blockNumber": "0x10e6ef1",
          "gasUsed": "0x1135d",
          "effectiveGasPrice": "0xcce41660e",
          "from": "0x0166ea90e565476f13c6a0d25ed2c35599e58785",
          "to": "0x0000000df7e6c9dc387cafc5ecbfa6c3a6179add",
          "contractAddress": null
        }
      ],
      "libraries": [],
      "pending": [],
      "returns": {},
      "timestamp": 1738790660,
      "chain": 80002,
      "commit": "51472d3"
    },
    {
      "transactions": [
        {
          "hash": null,
          "transactionType": "CALL",
          "contractName": null,
          "contractAddress": "0x0000000df7e6c9dc387cafc5ecbfa6c3a6179add",
          "function": "setPlugins(address[],bool[])",
          "arguments": [
            "[0x0000000d81083B16EA76dfab46B0315B0eDBF3d0, 0x0000000C984AFf541D6cE86Bb697e68ec57873C8]",
            "[true, true]"
          ],
          "transaction": {
            "from": "0x0166ea90e565476f13c6a0d25ed2c35599e58785",
            "to": "0x0000000df7e6c9dc387cafc5ecbfa6c3a6179add",
            "gas": "0x198d1",
            "value": "0x0",
            "input": "0xe034b090000000000000000000000000000000000000000000000000000000000000004000000000000000000000000000000000000000000000000000000000000000a000000000000000000000000000000000000000000000000000000000000000020000000000000000000000000000000d81083b16ea76dfab46b0315b0edbf3d00000000000000000000000000000000c984aff541d6ce86bb697e68ec57873c8000000000000000000000000000000000000000000000000000000000000000200000000000000000000000000000000000000000000000000000000000000010000000000000000000000000000000000000000000000000000000000000001",
            "nonce": "0x5",
            "chainId": "0xa4b1"
          },
          "additionalContracts": [],
          "isFixedGasLimit": false
        }
      ],
      "receipts": [],
      "libraries": [],
      "pending": [],
      "returns": {},
      "timestamp": 1738790661,
      "chain": 42161,
      "commit": "51472d3"
    },
    {
      "transactions": [
        {
          "hash": null,
          "transactionType": "CALL",
          "contractName": null,
          "contractAddress": "0x0000000df7e6c9dc387cafc5ecbfa6c3a6179add",
          "function": "setPlugins(address[],bool[])",
          "arguments": [
            "[0x0000000d81083B16EA76dfab46B0315B0eDBF3d0, 0x0000000C984AFf541D6cE86Bb697e68ec57873C8]",
            "[true, true]"
          ],
          "transaction": {
            "from": "0x0166ea90e565476f13c6a0d25ed2c35599e58785",
            "to": "0x0000000df7e6c9dc387cafc5ecbfa6c3a6179add",
            "gas": "0xa867",
            "value": "0x0",
            "input": "0xe034b090000000000000000000000000000000000000000000000000000000000000004000000000000000000000000000000000000000000000000000000000000000a000000000000000000000000000000000000000000000000000000000000000020000000000000000000000000000000d81083b16ea76dfab46b0315b0edbf3d00000000000000000000000000000000c984aff541d6ce86bb697e68ec57873c8000000000000000000000000000000000000000000000000000000000000000200000000000000000000000000000000000000000000000000000000000000010000000000000000000000000000000000000000000000000000000000000001",
            "nonce": "0xc",
            "chainId": "0x66eee"
          },
          "additionalContracts": [],
          "isFixedGasLimit": false
        }
      ],
      "receipts": [],
      "libraries": [],
      "pending": [],
      "returns": {},
      "timestamp": 1738790662,
      "chain": 421614,
      "commit": "51472d3"
    }
  ],
  "timestamp": 1738790714
}