{
  "transactions": [
    {
      "hash": "0x6264a1960bc6ef51d4132438d1799c3bcde6e0d2ba777f1e26afecba81cd713e",
      "transactionType": "CALL",
      "contractName": null,
      "contractAddress": "0xc83d88c018d143d08afe910221d445189fc6817a",
      "function": "addStake(uint32)",
      "arguments": [
        "86400"
      ],
      "transaction": {
        "from": "0x0166ea90e565476f13c6a0d25ed2c35599e58785",
        "to": "0xc83d88c018d143d08afe910221d445189fc6817a",
        "gas": "0x14566",
        "value": "0x16345785d8a0000",
        "input": "0x0396cb600000000000000000000000000000000000000000000000000000000000015180",
        "nonce": "0x6",
        "chainId": "0xaa36a7"
      },
      "additionalContracts": [],
      "isFixedGasLimit": false
    }
  ],
  "receipts": [
    {
      "status": "0x1",
      "cumulativeGasUsed": "0x14f3630",
      "logs": [
        {
          "address": "0x0000000071727de22e5e9d8baf0edac6f37da032",
          "topics": [
            "0xa5ae833d0bb1dcd632d98a8b70973e8516812898e19bf27b70071ebc8dc52c01",
            "0x000000000000000000000000c83d88c018d143d08afe910221d445189fc6817a"
          ],
          "data": "0x000000000000000000000000000000000000000000000000016345785d8a00000000000000000000000000000000000000000000000000000000000000015180",
          "blockHash": "0x9de6850321029f98020fa2697d11b86335faf379b9165b7a235e5d31dc134c3f",
          "blockNumber": "0x67b58a",
          "transactionHash": "0x6264a1960bc6ef51d4132438d1799c3bcde6e0d2ba777f1e26afecba81cd713e",
          "transactionIndex": "0x2e",
          "logIndex": "0x4a",
          "removed": false
        }
      ],
      "logsBloom": "0x00000000000000000000000000000000000000000000000000000000000000000000000000000000000000000000000000000300000000000000000000000000000000000000000000000000000000000040000000000000000000000000000000000000000800000000000000000000000000000000000000000000000000000000000000000000000000000000000000000000000000000000000000000000000000000000000000000000000000000000000000000000000000000000000000000000000000400000000000000000000040000080000000000000000000000100000000000000000000000000000000000200000000000000000000000000",
      "type": "0x2",
      "transactionHash": "0x6264a1960bc6ef51d4132438d1799c3bcde6e0d2ba777f1e26afecba81cd713e",
      "transactionIndex": "0x2e",
      "blockHash": "0x9de6850321029f98020fa2697d11b86335faf379b9165b7a235e5d31dc134c3f",
      "blockNumber": "0x67b58a",
      "gasUsed": "0xeb96",
      "effectiveGasPrice": "0x1e667c0fec",
      "from": "0x0166ea90e565476f13c6a0d25ed2c35599e58785",
      "to": "0xc83d88c018d143d08afe910221d445189fc6817a",
      "contractAddress": null
    }
  ],
  "libraries": [],
  "pending": [],
  "returns": {},
  "timestamp": 1727820427,
  "chain": 11155111,
  "commit": "2549e72"
}