{
  "deployments": [
    {
      "transactions": [
        {
          "hash": "0x80f29e856b751a99bf5d82417c3bff25615865233c9250e4b5ab10d45898931c",
          "transactionType": "CALL",
          "contractName": null,
          "contractAddress": "0x0000000df7e6c9dc387cafc5ecbfa6c3a6179add",
          "function": "addStake(uint32)",
          "arguments": [
            "86400"
          ],
          "transaction": {
            "from": "0x0166ea90e565476f13c6a0d25ed2c35599e58785",
            "to": "0x0000000df7e6c9dc387cafc5ecbfa6c3a6179add",
            "gas": "0x14566",
            "value": "0x16345785d8a0000",
            "input": "0x0396cb600000000000000000000000000000000000000000000000000000000000015180",
            "nonce": "0x1",
            "chainId": "0x2105"
          },
          "additionalContracts": [],
          "isFixedGasLimit": false
        }
      ],
      "receipts": [
        {
          "status": "0x1",
          "cumulativeGasUsed": "0x3dfbd48",
          "logs": [
            {
              "address": "0x0000000071727de22e5e9d8baf0edac6f37da032",
              "topics": [
                "0xa5ae833d0bb1dcd632d98a8b70973e8516812898e19bf27b70071ebc8dc52c01",
                "0x0000000000000000000000000000000df7e6c9dc387cafc5ecbfa6c3a6179add"
              ],
              "data": "0x000000000000000000000000000000000000000000000000016345785d8a00000000000000000000000000000000000000000000000000000000000000015180",
              "blockHash": "0xcec545e702f69527e72e4345625ada6a20a9cf4f13885f77f5380f987116ee47",
              "blockNumber": "0x1a72e04",
              "blockTimestamp": "0x67d8b8eb",
              "transactionHash": "0x80f29e856b751a99bf5d82417c3bff25615865233c9250e4b5ab10d45898931c",
              "transactionIndex": "0xc5",
              "logIndex": "0x220",
              "removed": false
            }
          ],
          "logsBloom": "0x00000000000000000000000000000000000080000000000000000000000000000000000000000000000000000000000000000000000000000000000000000000000000000000000000000000000000000040000000000000000000000000000000000000000800000000000000000000000000000000000000000000000000000000000000000000000000000000000000000000000000000040000000000000000000000000000000000000000000000000000000000000000000000000000000000000000000400000000000000000000040000000000000000000000000000100000000000000000000000000000020000200000000000000000000000000",
          "type": "0x2",
          "transactionHash": "0x80f29e856b751a99bf5d82417c3bff25615865233c9250e4b5ab10d45898931c",
          "transactionIndex": "0xc5",
          "blockHash": "0xcec545e702f69527e72e4345625ada6a20a9cf4f13885f77f5380f987116ee47",
          "blockNumber": "0x1a72e04",
          "gasUsed": "0xeb96",
          "effectiveGasPrice": "0x2c04a8",
          "from": "0x0166ea90e565476f13c6a0d25ed2c35599e58785",
          "to": "0x0000000df7e6c9dc387cafc5ecbfa6c3a6179add",
          "contractAddress": null,
          "l1BaseFeeScalar": "0x8dd",
          "l1BlobBaseFee": "0x133727f1",
          "l1BlobBaseFeeScalar": "0x101c12",
          "l1Fee": "0x84679c837",
          "l1GasPrice": "0x18bafa58",
          "l1GasUsed": "0x640"
        }
      ],
      "libraries": [],
      "pending": [],
      "returns": {},
      "timestamp": 1742256359,
      "chain": 8453,
      "commit": "f5e82e5"
    },
    {
      "transactions": [
        {
          "hash": "0x53789c7421f0edcb13a070fd9b9b5fc3c1edd75c89aa6d5046958b9ecc92c150",
          "transactionType": "CALL",
          "contractName": null,
          "contractAddress": "0x0000000df7e6c9dc387cafc5ecbfa6c3a6179add",
          "function": "addStake(uint32)",
          "arguments": [
            "86400"
          ],
          "transaction": {
            "from": "0x0166ea90e565476f13c6a0d25ed2c35599e58785",
            "to": "0x0000000df7e6c9dc387cafc5ecbfa6c3a6179add",
            "gas": "0x14566",
            "value": "0x16345785d8a0000",
            "input": "0x0396cb600000000000000000000000000000000000000000000000000000000000015180",
            "nonce": "0x1",
            "chainId": "0xa"
          },
          "additionalContracts": [],
          "isFixedGasLimit": false
        }
      ],
      "receipts": [
        {
          "status": "0x1",
          "cumulativeGasUsed": "0xe947d8",
          "logs": [
            {
              "address": "0x0000000071727de22e5e9d8baf0edac6f37da032",
              "topics": [
                "0xa5ae833d0bb1dcd632d98a8b70973e8516812898e19bf27b70071ebc8dc52c01",
                "0x0000000000000000000000000000000df7e6c9dc387cafc5ecbfa6c3a6179add"
              ],
              "data": "0x000000000000000000000000000000000000000000000000016345785d8a00000000000000000000000000000000000000000000000000000000000000015180",
              "blockHash": "0x813098781b2787bf751ab0a644de68115c796845183a45a5cdbf1ef9d1ab0119",
              "blockNumber": "0x7f26f9b",
              "transactionHash": "0x53789c7421f0edcb13a070fd9b9b5fc3c1edd75c89aa6d5046958b9ecc92c150",
              "transactionIndex": "0x15",
              "logIndex": "0x18a",
              "removed": false
            }
          ],
          "logsBloom": "0x00000000000000000000000000000000000080000000000000000000000000000000000000000000000000000000000000000000000000000000000000000000000000000000000000000000000000000040000000000000000000000000000000000000000800000000000000000000000000000000000000000000000000000000000000000000000000000000000000000000000000000040000000000000000000000000000000000000000000000000000000000000000000000000000000000000000000400000000000000000000040000000000000000000000000000100000000000000000000000000000020000200000000000000000000000000",
          "type": "0x2",
          "transactionHash": "0x53789c7421f0edcb13a070fd9b9b5fc3c1edd75c89aa6d5046958b9ecc92c150",
          "transactionIndex": "0x15",
          "blockHash": "0x813098781b2787bf751ab0a644de68115c796845183a45a5cdbf1ef9d1ab0119",
          "blockNumber": "0x7f26f9b",
          "gasUsed": "0xeb96",
          "effectiveGasPrice": "0x30c82",
          "from": "0x0166ea90e565476f13c6a0d25ed2c35599e58785",
          "to": "0x0000000df7e6c9dc387cafc5ecbfa6c3a6179add",
          "contractAddress": null,
          "l1BaseFeeScalar": "0x146b",
          "l1BlobBaseFee": "0x1279c460",
          "l1BlobBaseFeeScalar": "0xf79c5",
          "l1Fee": "0x828ea1daf",
          "l1GasPrice": "0x19b7f636",
          "l1GasUsed": "0x640"
        }
      ],
      "libraries": [],
      "pending": [],
      "returns": {},
      "timestamp": 1742256359,
      "chain": 10,
      "commit": "f5e82e5"
    },
    {
      "transactions": [
        {
          "hash": "0xd59639bcecf994f6a7b31f407df2230d61d8d1bb180049bb99a42ed08044dc58",
          "transactionType": "CALL",
          "contractName": null,
          "contractAddress": "0x0000000df7e6c9dc387cafc5ecbfa6c3a6179add",
          "function": "addStake(uint32)",
          "arguments": [
            "86400"
          ],
          "transaction": {
            "from": "0x0166ea90e565476f13c6a0d25ed2c35599e58785",
            "to": "0x0000000df7e6c9dc387cafc5ecbfa6c3a6179add",
            "gas": "0x14566",
            "value": "0x16345785d8a0000",
            "input": "0x0396cb600000000000000000000000000000000000000000000000000000000000015180",
            "nonce": "0x1",
            "chainId": "0x14a34"
          },
          "additionalContracts": [],
          "isFixedGasLimit": false
        }
      ],
      "receipts": [
        {
          "status": "0x1",
          "cumulativeGasUsed": "0xcd9e58",
          "logs": [
            {
              "address": "0x0000000071727de22e5e9d8baf0edac6f37da032",
              "topics": [
                "0xa5ae833d0bb1dcd632d98a8b70973e8516812898e19bf27b70071ebc8dc52c01",
                "0x0000000000000000000000000000000df7e6c9dc387cafc5ecbfa6c3a6179add"
              ],
              "data": "0x000000000000000000000000000000000000000000000000016345785d8a00000000000000000000000000000000000000000000000000000000000000015180",
              "blockHash": "0x11fc7026f22fb9371f3677a3951a8d38d65b4d591ebdbb8ad15840dedb4574e7",
              "blockNumber": "0x162ad09",
              "transactionHash": "0xd59639bcecf994f6a7b31f407df2230d61d8d1bb180049bb99a42ed08044dc58",
              "transactionIndex": "0x37",
              "logIndex": "0x14c",
              "removed": false
            }
          ],
          "logsBloom": "0x00000000000000000000000000000000000080000000000000000000000000000000000000000000000000000000000000000000000000000000000000000000000000000000000000000000000000000040000000000000000000000000000000000000000800000000000000000000000000000000000000000000000000000000000000000000000000000000000000000000000000000040000000000000000000000000000000000000000000000000000000000000000000000000000000000000000000400000000000000000000040000000000000000000000000000100000000000000000000000000000020000200000000000000000000000000",
          "type": "0x2",
          "transactionHash": "0xd59639bcecf994f6a7b31f407df2230d61d8d1bb180049bb99a42ed08044dc58",
          "transactionIndex": "0x37",
          "blockHash": "0x11fc7026f22fb9371f3677a3951a8d38d65b4d591ebdbb8ad15840dedb4574e7",
          "blockNumber": "0x162ad09",
          "gasUsed": "0xeb96",
          "effectiveGasPrice": "0x54913e",
          "from": "0x0166ea90e565476f13c6a0d25ed2c35599e58785",
          "to": "0x0000000df7e6c9dc387cafc5ecbfa6c3a6179add",
          "contractAddress": null,
          "l1BaseFeeScalar": "0x44d",
          "l1BlobBaseFee": "0x1",
          "l1BlobBaseFeeScalar": "0xa118b",
          "l1Fee": "0xe3171ad2",
          "l1GasPrice": "0x80e94eca",
          "l1GasUsed": "0x640"
        }
      ],
      "libraries": [],
      "pending": [],
      "returns": {},
      "timestamp": 1742256360,
      "chain": 84532,
      "commit": "f5e82e5"
    },
    {
      "transactions": [
        {
          "hash": "0x9308b22fae295d50c7e16af5e93cc20b81dff53f3379ec3bb6bd7764b3e32db4",
          "transactionType": "CALL",
          "contractName": null,
          "contractAddress": "0x0000000df7e6c9dc387cafc5ecbfa6c3a6179add",
          "function": "addStake(uint32)",
          "arguments": [
            "86400"
          ],
          "transaction": {
            "from": "0x0166ea90e565476f13c6a0d25ed2c35599e58785",
            "to": "0x0000000df7e6c9dc387cafc5ecbfa6c3a6179add",
            "gas": "0x14566",
            "value": "0x16345785d8a0000",
            "input": "0x0396cb600000000000000000000000000000000000000000000000000000000000015180",
            "nonce": "0x1",
            "chainId": "0xaa37dc"
          },
          "additionalContracts": [],
          "isFixedGasLimit": false
        }
      ],
      "receipts": [
        {
          "status": "0x1",
          "cumulativeGasUsed": "0xaea26",
          "logs": [
            {
              "address": "0x0000000071727de22e5e9d8baf0edac6f37da032",
              "topics": [
                "0xa5ae833d0bb1dcd632d98a8b70973e8516812898e19bf27b70071ebc8dc52c01",
                "0x0000000000000000000000000000000df7e6c9dc387cafc5ecbfa6c3a6179add"
              ],
              "data": "0x000000000000000000000000000000000000000000000000016345785d8a00000000000000000000000000000000000000000000000000000000000000015180",
              "blockHash": "0xbfce1c9431aeb5f39d10471a52d1bdd81b4dae2f2056400ed3b455554d3d218f",
              "blockNumber": "0x180eea5",
              "transactionHash": "0x9308b22fae295d50c7e16af5e93cc20b81dff53f3379ec3bb6bd7764b3e32db4",
              "transactionIndex": "0x2",
              "logIndex": "0x4",
              "removed": false
            }
          ],
          "logsBloom": "0x00000000000000000000000000000000000080000000000000000000000000000000000000000000000000000000000000000000000000000000000000000000000000000000000000000000000000000040000000000000000000000000000000000000000800000000000000000000000000000000000000000000000000000000000000000000000000000000000000000000000000000040000000000000000000000000000000000000000000000000000000000000000000000000000000000000000000400000000000000000000040000000000000000000000000000100000000000000000000000000000020000200000000000000000000000000",
          "type": "0x2",
          "transactionHash": "0x9308b22fae295d50c7e16af5e93cc20b81dff53f3379ec3bb6bd7764b3e32db4",
          "transactionIndex": "0x2",
          "blockHash": "0xbfce1c9431aeb5f39d10471a52d1bdd81b4dae2f2056400ed3b455554d3d218f",
          "blockNumber": "0x180eea5",
          "gasUsed": "0xeb96",
          "effectiveGasPrice": "0xf434c",
          "from": "0x0166ea90e565476f13c6a0d25ed2c35599e58785",
          "to": "0x0000000df7e6c9dc387cafc5ecbfa6c3a6179add",
          "contractAddress": null,
          "l1BaseFeeScalar": "0x1db0",
          "l1BlobBaseFee": "0x1",
          "l1BlobBaseFeeScalar": "0xd2730",
          "l1Fee": "0x7110cdf5c",
          "l1GasPrice": "0x94c544de",
          "l1GasUsed": "0x640"
        }
      ],
      "libraries": [],
      "pending": [],
      "returns": {},
      "timestamp": 1742256360,
      "chain": 11155420,
      "commit": "f5e82e5"
    }
  ],
  "timestamp": 1742256374
}