{
  "transactions": [
    {
      "hash": "0xe3dd785259869e6b1a1117b9f8977523452768f2b5f43f0e9b9ae8ef0744dc18",
      "transactionType": "CALL",
      "contractName": null,
      "contractAddress": "0xc83d88c018d143d08afe910221d445189fc6817a",
      "function": "setPlugins(address[],bool[])",
      "arguments": [
        "[0x3c95978Af08B6B2Fd82659B393be86AfB4bd3D6F, 0x5a2262d58eB72B84701D6efBf6bB6586C793A65b, 0x03431Fb00fB2e26b5bC502DFeF8dA30E1C8643b8, 0xafedA287352d79000125BefCbF109cb13125854d]",
        "[true, true, true, false]"
      ],
      "transaction": {
        "from": "0x0166ea90e565476f13c6a0d25ed2c35599e58785",
        "to": "0xc83d88c018d143d08afe910221d445189fc6817a",
        "gas": "0x13912",
        "value": "0x0",
        "input": "0xe034b090000000000000000000000000000000000000000000000000000000000000004000000000000000000000000000000000000000000000000000000000000000e000000000000000000000000000000000000000000000000000000000000000040000000000000000000000003c95978af08b6b2fd82659b393be86afb4bd3d6f0000000000000000000000005a2262d58eb72b84701d6efbf6bb6586c793a65b00000000000000000000000003431fb00fb2e26b5bc502dfef8da30e1c8643b8000000000000000000000000afeda287352d79000125befcbf109cb13125854d00000000000000000000000000000000000000000000000000000000000000040000000000000000000000000000000000000000000000000000000000000001000000000000000000000000000000000000000000000000000000000000000100000000000000000000000000000000000000000000000000000000000000010000000000000000000000000000000000000000000000000000000000000000",
        "nonce": "0x10",
        "chainId": "0x13882"
      },
      "additionalContracts": [],
      "isFixedGasLimit": false
    }
  ],
  "receipts": [
    {
      "status": "0x1",
      "cumulativeGasUsed": "0xd611",
      "logs": [
        {
          "address": "0x0000000000000000000000000000000000001010",
          "topics": [
            "0x4dfe1bbbcf077ddc3e01291eea2d5c70c2b422b415d95645b9adcfd678cb1d63",
            "0x0000000000000000000000000000000000000000000000000000000000001010",
            "0x0000000000000000000000000166ea90e565476f13c6a0d25ed2c35599e58785",
            "0x00000000000000000000000022b64229c41429a023549fdab3385893b579327a"
          ],
          "data": "0x0000000000000000000000000000000000000000000000000005fff54babcb5700000000000000000000000000000000000000000000000004d084b701b714b80000000000000000000000000000000000000000000000eb567a342d1052776000000000000000000000000000000000000000000000000004ca84c1b60b49610000000000000000000000000000000000000000000000eb568034225bfe42b7",
          "blockHash": "0xf1ac44b463d2e9990773100247ce0b27a3785a38336212d2acdbf11d897fd1b3",
          "blockNumber": "0xcfb11a",
          "transactionHash": "0xe3dd785259869e6b1a1117b9f8977523452768f2b5f43f0e9b9ae8ef0744dc18",
          "transactionIndex": "0x0",
          "logIndex": "0x0",
          "removed": false
        }
      ],
      "logsBloom": "0x00000000000000000000000000000000000000000000000000000000000000000000000000008000000000000000000000008000004000000000000000000000000000000000000000000000000000800000000000000000000100000000000000000000000000000000000000000000000000000000000080000000000000000000000000200000000000000000000000000000000000000000010000000000200000000000000000000000000000000000000000000000000000002000004000000000000000000001000000000000000000000000000000100000000000000000000000000000000000000000000000000000000000000000000000140000",
      "type": "0x2",
      "transactionHash": "0xe3dd785259869e6b1a1117b9f8977523452768f2b5f43f0e9b9ae8ef0744dc18",
      "transactionIndex": "0x0",
      "blockHash": "0xf1ac44b463d2e9990773100247ce0b27a3785a38336212d2acdbf11d897fd1b3",
      "blockNumber": "0xcfb11a",
      "gasUsed": "0xd611",
      "effectiveGasPrice": "0x72cd682f6",
      "from": "0x0166ea90e565476f13c6a0d25ed2c35599e58785",
      "to": "0xc83d88c018d143d08afe910221d445189fc6817a",
      "contractAddress": null
    }
  ],
  "libraries": [],
  "pending": [],
  "returns": {},
  "timestamp": 1729872376,
  "chain": 80002,
  "commit": "14fff0d"
}