{
  "transactions": [
    {
      "hash": "0x32af25d32e6226a246b1105909944e66633af1a51ceb0a09698dd8fd1a8fbd35",
      "transactionType": "CALL",
      "contractName": null,
      "contractAddress": "0xc83d88c018d143d08afe910221d445189fc6817a",
      "function": "setPlugins(address[],bool[])",
      "arguments": [
        "[0x3c95978Af08B6B2Fd82659B393be86AfB4bd3D6F, 0xafedA287352d79000125BefCbF109cb13125854d, 0x03431Fb00fB2e26b5bC502DFeF8dA30E1C8643b8, 0x7af5E9DBe3e50F023a5b99f44002697cF8e1de2e, 0x558498E7CD325b17be8c8A79884A1cAcfD72a4AA]",
        "[true, true, true, false, false]"
      ],
      "transaction": {
        "from": "0x0166ea90e565476f13c6a0d25ed2c35599e58785",
        "to": "0xc83d88c018d143d08afe910221d445189fc6817a",
        "gas": "0xc4b2",
        "value": "0x0",
        "input": "0xe034b0900000000000000000000000000000000000000000000000000000000000000040000000000000000000000000000000000000000000000000000000000000010000000000000000000000000000000000000000000000000000000000000000050000000000000000000000003c95978af08b6b2fd82659b393be86afb4bd3d6f000000000000000000000000afeda287352d79000125befcbf109cb13125854d00000000000000000000000003431fb00fb2e26b5bc502dfef8da30e1c8643b80000000000000000000000007af5e9dbe3e50f023a5b99f44002697cf8e1de2e000000000000000000000000558498e7cd325b17be8c8a79884a1cacfd72a4aa000000000000000000000000000000000000000000000000000000000000000500000000000000000000000000000000000000000000000000000000000000010000000000000000000000000000000000000000000000000000000000000001000000000000000000000000000000000000000000000000000000000000000100000000000000000000000000000000000000000000000000000000000000000000000000000000000000000000000000000000000000000000000000000000",
        "nonce": "0xf",
        "chainId": "0x13882"
      },
      "additionalContracts": [],
      "isFixedGasLimit": false
    }
  ],
  "receipts": [
    {
      "status": "0x1",
      "cumulativeGasUsed": "0x8e68",
      "logs": [
        {
          "address": "0x0000000000000000000000000000000000001010",
          "topics": [
            "0x4dfe1bbbcf077ddc3e01291eea2d5c70c2b422b415d95645b9adcfd678cb1d63",
            "0x0000000000000000000000000000000000000000000000000000000000001010",
            "0x0000000000000000000000000166ea90e565476f13c6a0d25ed2c35599e58785",
            "0x00000000000000000000000004ba3ef4c023c1006019a0f9baf6e70455e41fcf"
          ],
          "data": "0x0000000000000000000000000000000000000000000000000005cde08bb85a6800000000000000000000000000000000000000000000000004d652978d77c738000000000000000000000000000000000000000000000135c1a032b831560c2f00000000000000000000000000000000000000000000000004d084b701bf6cd0000000000000000000000000000000000000000000000135c1a60098bd0e6697",
          "blockHash": "0x00c1250261f429290448724269cc7e482ed85e200608592627c57b404b76e820",
          "blockNumber": "0xc55772",
          "transactionHash": "0x32af25d32e6226a246b1105909944e66633af1a51ceb0a09698dd8fd1a8fbd35",
          "transactionIndex": "0x0",
          "logIndex": "0x0",
          "removed": false
        }
      ],
      "logsBloom": "0x00000000000000000000000000000000000000000000000000000000000004000000000000008000000000000000000000008000004000000000000000000000000000000000000000000000000000800000000000000000000100000000000000000000000000000000000000000000000000000000000080000000000000000000000000004000000000000000000000000000000000000000000000000000200000000000000000000000000000000000000000000000000000000000004000000000000000000001000000000000000000000000000000100000000000000000000000000000000000000000000000000000000000000000000000140000",
      "type": "0x2",
      "transactionHash": "0x32af25d32e6226a246b1105909944e66633af1a51ceb0a09698dd8fd1a8fbd35",
      "transactionIndex": "0x0",
      "blockHash": "0x00c1250261f429290448724269cc7e482ed85e200608592627c57b404b76e820",
      "blockNumber": "0xc55772",
      "gasUsed": "0x8e68",
      "effectiveGasPrice": "0xa6f1f5f90",
      "from": "0x0166ea90e565476f13c6a0d25ed2c35599e58785",
      "to": "0xc83d88c018d143d08afe910221d445189fc6817a",
      "contractAddress": null
    }
  ],
  "libraries": [],
  "pending": [],
  "returns": {},
  "timestamp": 1728397460,
  "chain": 80002,
  "commit": "2549e72"
}