{
  "transactions": [
    {
      "hash": "0x9d47459cb2d33eaff4d287589396ad3ec4215a812850892779fc65a7eaa57650",
      "transactionType": "CALL",
      "contractName": null,
      "contractAddress": "0x3e6b66a72b76850c372fbdf29f53268ad636b320",
      "function": "setPlugins(address[],bool[])",
      "arguments": [
        "[0x03431Fb00fB2e26b5bC502DFeF8dA30E1C8643b8, 0x0000000000000000000000000000000000000000]",
        "[true, true]"
      ],
      "transaction": {
        "from": "0x0166ea90e565476f13c6a0d25ed2c35599e58785",
        "to": "0x3e6b66a72b76850c372fbdf29f53268ad636b320",
        "gas": "0x17b70",
        "value": "0x0",
        "input": "0xe034b090000000000000000000000000000000000000000000000000000000000000004000000000000000000000000000000000000000000000000000000000000000a0000000000000000000000000000000000000000000000000000000000000000200000000000000000000000003431fb00fb2e26b5bc502dfef8da30e1c8643b80000000000000000000000000000000000000000000000000000000000000000000000000000000000000000000000000000000000000000000000000000000200000000000000000000000000000000000000000000000000000000000000010000000000000000000000000000000000000000000000000000000000000001",
        "nonce": "0x8",
        "chainId": "0x13882"
      },
      "additionalContracts": [],
      "isFixedGasLimit": false
    }
  ],
  "receipts": [
    {
      "status": "0x1",
      "cumulativeGasUsed": "0x2186f",
      "logs": [
        {
          "address": "0x0000000000000000000000000000000000001010",
          "topics": [
            "0x4dfe1bbbcf077ddc3e01291eea2d5c70c2b422b415d95645b9adcfd678cb1d63",
            "0x0000000000000000000000000000000000000000000000000000000000001010",
            "0x0000000000000000000000000166ea90e565476f13c6a0d25ed2c35599e58785",
            "0x000000000000000000000000bb583a9dde59ca64aaa14807f37a4c665c0d72c7"
          ],
          "data": "0x00000000000000000000000000000000000000000000000000077ece73509c000000000000000000000000000000000000000000000000000171e07f9aba7e2c0000000000000000000000000000000000000000000000da477c2cc0f6396329000000000000000000000000000000000000000000000000016a61b12769e22c0000000000000000000000000000000000000000000000da4783ab8f6989ff29",
          "blockHash": "0x7b1632bb6b6bba2d8ffdb38c84ad63e834bd00021ecfbc2c8848d5993ba12835",
          "blockNumber": "0xbd845e",
          "transactionHash": "0x9d47459cb2d33eaff4d287589396ad3ec4215a812850892779fc65a7eaa57650",
          "transactionIndex": "0x1",
          "logIndex": "0x2",
          "removed": false
        }
      ],
      "logsBloom": "0x00000000000000000000000000000000000000000000000000000000000000000000000000008000002000000000000000008000004000000000000000000000000000000000000000000000000000800000000000000000000100000000000000000000000000000000000000000000000000000000000080000000000000000000000000000000000000000000000000000000000000000008000000000000208000000000000000000000000000000000000000000000000000000000004000000000000000000001000000000000000000000000000000100000000000000000000000000000000000000000000000000000000000000000000000140000",
      "type": "0x2",
      "transactionHash": "0x9d47459cb2d33eaff4d287589396ad3ec4215a812850892779fc65a7eaa57650",
      "transactionIndex": "0x1",
      "blockHash": "0x7b1632bb6b6bba2d8ffdb38c84ad63e834bd00021ecfbc2c8848d5993ba12835",
      "blockNumber": "0xbd845e",
      "gasUsed": "0x112b5",
      "effectiveGasPrice": "0x6fc23ac0f",
      "from": "0x0166ea90e565476f13c6a0d25ed2c35599e58785",
      "to": "0x3e6b66a72b76850c372fbdf29f53268ad636b320",
      "contractAddress": null
    }
  ],
  "libraries": [],
  "pending": [],
  "returns": {},
  "timestamp": 1727304719,
  "chain": 80002,
  "commit": "1d2d26c"
}