{
  "transactions": [
    {
      "hash": "0x68c447979e87e4407adf8367ba9018a8503091c3fddda4ae7a8db8ef70f66c98",
      "transactionType": "CALL",
      "contractName": null,
      "contractAddress": "0x3e6b66a72b76850c372fbdf29f53268ad636b320",
      "function": "setPlugins(address[],bool[])",
      "arguments": [
        "[0x7af5E9DBe3e50F023a5b99f44002697cF8e1de2e, 0x3c95978Af08B6B2Fd82659B393be86AfB4bd3D6F, 0x558498E7CD325b17be8c8A79884A1cAcfD72a4AA, 0x03431Fb00fB2e26b5bC502DFeF8dA30E1C8643b8]",
        "[true, true, true, true]"
      ],
      "transaction": {
        "from": "0x0166ea90e565476f13c6a0d25ed2c35599e58785",
        "to": "0x3e6b66a72b76850c372fbdf29f53268ad636b320",
        "gas": "0x19df8",
        "value": "0x0",
        "input": "0xe034b090000000000000000000000000000000000000000000000000000000000000004000000000000000000000000000000000000000000000000000000000000000e000000000000000000000000000000000000000000000000000000000000000040000000000000000000000007af5e9dbe3e50f023a5b99f44002697cf8e1de2e0000000000000000000000003c95978af08b6b2fd82659b393be86afb4bd3d6f000000000000000000000000558498e7cd325b17be8c8a79884a1cacfd72a4aa00000000000000000000000003431fb00fb2e26b5bc502dfef8da30e1c8643b800000000000000000000000000000000000000000000000000000000000000040000000000000000000000000000000000000000000000000000000000000001000000000000000000000000000000000000000000000000000000000000000100000000000000000000000000000000000000000000000000000000000000010000000000000000000000000000000000000000000000000000000000000001",
        "nonce": "0x9",
        "chainId": "0x13882"
      },
      "additionalContracts": [],
      "isFixedGasLimit": false
    }
  ],
  "receipts": [
    {
      "status": "0x1",
      "cumulativeGasUsed": "0x41adb",
      "logs": [
        {
          "address": "0x0000000000000000000000000000000000001010",
          "topics": [
            "0x4dfe1bbbcf077ddc3e01291eea2d5c70c2b422b415d95645b9adcfd678cb1d63",
            "0x0000000000000000000000000000000000000000000000000000000000001010",
            "0x0000000000000000000000000166ea90e565476f13c6a0d25ed2c35599e58785",
            "0x0000000000000000000000004631753190f2f5a15a7ba172bbac102b7d95fa22"
          ],
          "data": "0x0000000000000000000000000000000000000000000000000009597cd6812300000000000000000000000000000000000000000000000000016a61b12759c9910000000000000000000000000000000000000000000001df242f719fe02bac2f0000000000000000000000000000000000000000000000000161083450d8a6910000000000000000000000000000000000000000000001df2438cb1cb6accf2f",
          "blockHash": "0xe3bd948d845cd1042e458f631404be676124d9a6e12477c5985f89c8d19b4799",
          "blockNumber": "0xbdfd81",
          "transactionHash": "0x68c447979e87e4407adf8367ba9018a8503091c3fddda4ae7a8db8ef70f66c98",
          "transactionIndex": "0x2",
          "logIndex": "0x5",
          "removed": false
        }
      ],
      "logsBloom": "0x00000000000000000000000000000000000000002000000000000000000000000000000000008000000000000000000000008000004000000000000040000000000000000000000000000000000000800000000000000000000100000000000000000000000000100000000000000000000000000000000080000000000000000000000000000000000000000000000000000000000000000000000000000000200000000000000000000000000000000000000000000000000000000000004000000000000000000001000000000000000000000000000000100000000000000000000000000000000000000000000000000000000000000000000000140000",
      "type": "0x2",
      "transactionHash": "0x68c447979e87e4407adf8367ba9018a8503091c3fddda4ae7a8db8ef70f66c98",
      "transactionIndex": "0x2",
      "blockHash": "0xe3bd948d845cd1042e458f631404be676124d9a6e12477c5985f89c8d19b4799",
      "blockNumber": "0xbdfd81",
      "gasUsed": "0x12bb5",
      "effectiveGasPrice": "0x7fc70770f",
      "from": "0x0166ea90e565476f13c6a0d25ed2c35599e58785",
      "to": "0x3e6b66a72b76850c372fbdf29f53268ad636b320",
      "contractAddress": null
    }
  ],
  "libraries": [],
  "pending": [],
  "returns": {},
  "timestamp": 1727371773,
  "chain": 80002,
  "commit": "e9c0223"
}