{
  "transactions": [
    {
      "hash": "0x1cd8b1fb2fc31a46e978a24cdbfd1047d4be39e3264c05a6f3453a84f0262849",
      "transactionType": "CALL",
      "contractName": null,
      "contractAddress": "0x3e6b66a72b76850c372fbdf29f53268ad636b320",
      "function": "setPlugins(address[],bool[])",
      "arguments": [
        "[0x03431Fb00fB2e26b5bC502DFeF8dA30E1C8643b8, 0x0000000000000000000000000000000000000000]",
        "[true, true]"
      ],
      "transaction": {
        "from": "0x0166ea90e565476f13c6a0d25ed2c35599e58785",
        "to": "0x3e6b66a72b76850c372fbdf29f53268ad636b320",
        "gas": "0x17b70",
        "value": "0x0",
        "input": "0xe034b090000000000000000000000000000000000000000000000000000000000000004000000000000000000000000000000000000000000000000000000000000000a0000000000000000000000000000000000000000000000000000000000000000200000000000000000000000003431fb00fb2e26b5bc502dfef8da30e1c8643b80000000000000000000000000000000000000000000000000000000000000000000000000000000000000000000000000000000000000000000000000000000200000000000000000000000000000000000000000000000000000000000000010000000000000000000000000000000000000000000000000000000000000001",
        "nonce": "0x4",
        "chainId": "0xaa36a7"
      },
      "additionalContracts": [],
      "isFixedGasLimit": false
    }
  ],
  "receipts": [
    {
      "status": "0x1",
      "cumulativeGasUsed": "0xb17cd2",
      "logs": [],
      "logsBloom": "0x00000000000000000000000000000000000000000000000000000000000000000000000000000000000000000000000000000000000000000000000000000000000000000000000000000000000000000000000000000000000000000000000000000000000000000000000000000000000000000000000000000000000000000000000000000000000000000000000000000000000000000000000000000000000000000000000000000000000000000000000000000000000000000000000000000000000000000000000000000000000000000000000000000000000000000000000000000000000000000000000000000000000000000000000000000000",
      "type": "0x2",
      "transactionHash": "0x1cd8b1fb2fc31a46e978a24cdbfd1047d4be39e3264c05a6f3453a84f0262849",
      "transactionIndex": "0x2e",
      "blockHash": "0xbf51286c03ff6ce7b23030edd4faef47ee6ae9990f6e157e4b64c6b9d93ce906",
      "blockNumber": "0x6732e6",
      "gasUsed": "0x112b5",
      "effectiveGasPrice": "0x225ea91245",
      "from": "0x0166ea90e565476f13c6a0d25ed2c35599e58785",
      "to": "0x3e6b66a72b76850c372fbdf29f53268ad636b320",
      "contractAddress": null
    }
  ],
  "libraries": [],
  "pending": [],
  "returns": {},
  "timestamp": 1727355806,
  "chain": 11155111,
  "commit": "1d2d26c"
}