{
  "transactions": [
    {
      "hash": "0x91a448c5f6fb1f4ba65066b1b37190768df0ae6c62c3866a9d99402059633741",
      "transactionType": "CALL",
      "contractName": null,
      "contractAddress": "0xc83d88c018d143d08afe910221d445189fc6817a",
      "function": "setPlugins(address[],bool[])",
      "arguments": [
        "[0x3c95978Af08B6B2Fd82659B393be86AfB4bd3D6F, 0x5a2262d58eB72B84701D6efBf6bB6586C793A65b, 0x03431Fb00fB2e26b5bC502DFeF8dA30E1C8643b8, 0xafedA287352d79000125BefCbF109cb13125854d]",
        "[true, true, true, false]"
      ],
      "transaction": {
        "from": "0x0166ea90e565476f13c6a0d25ed2c35599e58785",
        "to": "0xc83d88c018d143d08afe910221d445189fc6817a",
        "gas": "0x13912",
        "value": "0x0",
        "input": "0xe034b090000000000000000000000000000000000000000000000000000000000000004000000000000000000000000000000000000000000000000000000000000000e000000000000000000000000000000000000000000000000000000000000000040000000000000000000000003c95978af08b6b2fd82659b393be86afb4bd3d6f0000000000000000000000005a2262d58eb72b84701d6efbf6bb6586c793a65b00000000000000000000000003431fb00fb2e26b5bc502dfef8da30e1c8643b8000000000000000000000000afeda287352d79000125befcbf109cb13125854d00000000000000000000000000000000000000000000000000000000000000040000000000000000000000000000000000000000000000000000000000000001000000000000000000000000000000000000000000000000000000000000000100000000000000000000000000000000000000000000000000000000000000010000000000000000000000000000000000000000000000000000000000000000",
        "nonce": "0xb",
        "chainId": "0xaa36a7"
      },
      "additionalContracts": [],
      "isFixedGasLimit": false
    }
  ],
  "receipts": [
    {
      "status": "0x1",
      "cumulativeGasUsed": "0xa0a906",
      "logs": [],
      "logsBloom": "0x00000000000000000000000000000000000000000000000000000000000000000000000000000000000000000000000000000000000000000000000000000000000000000000000000000000000000000000000000000000000000000000000000000000000000000000000000000000000000000000000000000000000000000000000000000000000000000000000000000000000000000000000000000000000000000000000000000000000000000000000000000000000000000000000000000000000000000000000000000000000000000000000000000000000000000000000000000000000000000000000000000000000000000000000000000000",
      "type": "0x2",
      "transactionHash": "0x91a448c5f6fb1f4ba65066b1b37190768df0ae6c62c3866a9d99402059633741",
      "transactionIndex": "0x43",
      "blockHash": "0x6446d9d78348db5b7c7d1a340df03b740adfb86deed1e8840c2b4f6474916816",
      "blockNumber": "0x69f3e4",
      "gasUsed": "0xd611",
      "effectiveGasPrice": "0x2a709f62",
      "from": "0x0166ea90e565476f13c6a0d25ed2c35599e58785",
      "to": "0xc83d88c018d143d08afe910221d445189fc6817a",
      "contractAddress": null
    }
  ],
  "libraries": [],
  "pending": [],
  "returns": {},
  "timestamp": 1729872965,
  "chain": 11155111,
  "commit": "14fff0d"
}