{
  "transactions": [
    {
      "hash": "0xccacbce280547d9b4f931329819291dd3882a3eaf397730c3f316e1d5d3208fe",
      "transactionType": "CALL",
      "contractName": null,
      "contractAddress": "0x3e6b66a72b76850c372fbdf29f53268ad636b320",
      "function": "setPlugins(address[],bool[])",
      "arguments": [
        "[0x7af5E9DBe3e50F023a5b99f44002697cF8e1de2e, 0x3c95978Af08B6B2Fd82659B393be86AfB4bd3D6F, 0x558498E7CD325b17be8c8A79884A1cAcfD72a4AA, 0x03431Fb00fB2e26b5bC502DFeF8dA30E1C8643b8]",
        "[true, true, true, true]"
      ],
      "transaction": {
        "from": "0x0166ea90e565476f13c6a0d25ed2c35599e58785",
        "to": "0x3e6b66a72b76850c372fbdf29f53268ad636b320",
        "gas": "0x22801",
        "value": "0x0",
        "input": "0xe034b090000000000000000000000000000000000000000000000000000000000000004000000000000000000000000000000000000000000000000000000000000000e000000000000000000000000000000000000000000000000000000000000000040000000000000000000000007af5e9dbe3e50f023a5b99f44002697cf8e1de2e0000000000000000000000003c95978af08b6b2fd82659b393be86afb4bd3d6f000000000000000000000000558498e7cd325b17be8c8a79884a1cacfd72a4aa00000000000000000000000003431fb00fb2e26b5bc502dfef8da30e1c8643b800000000000000000000000000000000000000000000000000000000000000040000000000000000000000000000000000000000000000000000000000000001000000000000000000000000000000000000000000000000000000000000000100000000000000000000000000000000000000000000000000000000000000010000000000000000000000000000000000000000000000000000000000000001",
        "nonce": "0x5",
        "chainId": "0xaa36a7"
      },
      "additionalContracts": [],
      "isFixedGasLimit": false
    }
  ],
  "receipts": [
    {
      "status": "0x1",
      "cumulativeGasUsed": "0xd5e5a0",
      "logs": [],
      "logsBloom": "0x00000000000000000000000000000000000000000000000000000000000000000000000000000000000000000000000000000000000000000000000000000000000000000000000000000000000000000000000000000000000000000000000000000000000000000000000000000000000000000000000000000000000000000000000000000000000000000000000000000000000000000000000000000000000000000000000000000000000000000000000000000000000000000000000000000000000000000000000000000000000000000000000000000000000000000000000000000000000000000000000000000000000000000000000000000000",
      "type": "0x2",
      "transactionHash": "0xccacbce280547d9b4f931329819291dd3882a3eaf397730c3f316e1d5d3208fe",
      "transactionIndex": "0x19",
      "blockHash": "0x382ba51509edab6bc38f217c43d12322cd042358a905cfa277e8c50a2e02c380",
      "blockNumber": "0x673702",
      "gasUsed": "0x17971",
      "effectiveGasPrice": "0x23d2b78649",
      "from": "0x0166ea90e565476f13c6a0d25ed2c35599e58785",
      "to": "0x3e6b66a72b76850c372fbdf29f53268ad636b320",
      "contractAddress": null
    }
  ],
  "libraries": [],
  "pending": [],
  "returns": {},
  "timestamp": 1727371045,
  "chain": 11155111,
  "commit": "e9c0223"
}