{
  "transactions": [
    {
      "hash": "0x2df186208d6712b06027a0ee1c6dc25fca33516c0083c0c4ee86328c94878843",
      "transactionType": "CALL",
      "contractName": null,
      "contractAddress": "0xc83d88c018d143d08afe910221d445189fc6817a",
      "function": "setPlugins(address[],bool[])",
      "arguments": [
        "[0x3c95978Af08B6B2Fd82659B393be86AfB4bd3D6F, 0xafedA287352d79000125BefCbF109cb13125854d, 0x03431Fb00fB2e26b5bC502DFeF8dA30E1C8643b8, 0x7af5E9DBe3e50F023a5b99f44002697cF8e1de2e, 0x558498E7CD325b17be8c8A79884A1cAcfD72a4AA]",
        "[true, true, true, false, false]"
      ],
      "transaction": {
        "from": "0x0166ea90e565476f13c6a0d25ed2c35599e58785",
        "to": "0xc83d88c018d143d08afe910221d445189fc6817a",
        "gas": "0xc4b2",
        "value": "0x0",
        "input": "0xe034b0900000000000000000000000000000000000000000000000000000000000000040000000000000000000000000000000000000000000000000000000000000010000000000000000000000000000000000000000000000000000000000000000050000000000000000000000003c95978af08b6b2fd82659b393be86afb4bd3d6f000000000000000000000000afeda287352d79000125befcbf109cb13125854d00000000000000000000000003431fb00fb2e26b5bc502dfef8da30e1c8643b80000000000000000000000007af5e9dbe3e50f023a5b99f44002697cf8e1de2e000000000000000000000000558498e7cd325b17be8c8a79884a1cacfd72a4aa000000000000000000000000000000000000000000000000000000000000000500000000000000000000000000000000000000000000000000000000000000010000000000000000000000000000000000000000000000000000000000000001000000000000000000000000000000000000000000000000000000000000000100000000000000000000000000000000000000000000000000000000000000000000000000000000000000000000000000000000000000000000000000000000",
        "nonce": "0x9",
        "chainId": "0xaa36a7"
      },
      "additionalContracts": [],
      "isFixedGasLimit": false
    }
  ],
  "receipts": [
    {
      "status": "0x1",
      "cumulativeGasUsed": "0x56dc23",
      "logs": [],
      "logsBloom": "0x00000000000000000000000000000000000000000000000000000000000000000000000000000000000000000000000000000000000000000000000000000000000000000000000000000000000000000000000000000000000000000000000000000000000000000000000000000000000000000000000000000000000000000000000000000000000000000000000000000000000000000000000000000000000000000000000000000000000000000000000000000000000000000000000000000000000000000000000000000000000000000000000000000000000000000000000000000000000000000000000000000000000000000000000000000000",
      "type": "0x2",
      "transactionHash": "0x2df186208d6712b06027a0ee1c6dc25fca33516c0083c0c4ee86328c94878843",
      "transactionIndex": "0x3b",
      "blockHash": "0x6634cb1e59354374f92dd8dd8f26efebb3b3e18863325896e3f7feb49833b815",
      "blockNumber": "0x6859b7",
      "gasUsed": "0x8e68",
      "effectiveGasPrice": "0x8aabe82",
      "from": "0x0166ea90e565476f13c6a0d25ed2c35599e58785",
      "to": "0xc83d88c018d143d08afe910221d445189fc6817a",
      "contractAddress": null
    }
  ],
  "libraries": [],
  "pending": [],
  "returns": {},
  "timestamp": 1728397682,
  "chain": 11155111,
  "commit": "2549e72"
}